{
	"FundMe.sol": {
		"FundMe": {
			"abi": [
				{
					"inputs": [],
					"stateMutability": "nonpayable",
					"type": "constructor"
				},
				{
					"inputs": [],
					"name": "NotOwner",
					"type": "error"
				},
				{
					"stateMutability": "payable",
					"type": "fallback"
				},
				{
					"inputs": [],
					"name": "MINIMUM_USD",
					"outputs": [
						{
							"internalType": "uint256",
							"name": "",
							"type": "uint256"
						}
					],
					"stateMutability": "view",
					"type": "function"
				},
				{
					"inputs": [
						{
							"internalType": "address",
							"name": "funder",
							"type": "address"
						}
					],
					"name": "addressToAmountFunded",
					"outputs": [
						{
							"internalType": "uint256",
							"name": "amountFunded",
							"type": "uint256"
						}
					],
					"stateMutability": "view",
					"type": "function"
				},
				{
					"inputs": [],
					"name": "fund",
					"outputs": [],
					"stateMutability": "payable",
					"type": "function"
				},
				{
					"inputs": [
						{
							"internalType": "uint256",
							"name": "",
							"type": "uint256"
						}
					],
					"name": "funders",
					"outputs": [
						{
							"internalType": "address",
							"name": "",
							"type": "address"
						}
					],
					"stateMutability": "view",
					"type": "function"
				},
				{
					"inputs": [],
					"name": "i_owner",
					"outputs": [
						{
							"internalType": "address",
							"name": "",
							"type": "address"
						}
					],
					"stateMutability": "view",
					"type": "function"
				},
				{
					"inputs": [
						{
							"internalType": "uint256",
							"name": "numberToMultiply",
							"type": "uint256"
						}
					],
					"name": "multiplier",
					"outputs": [
						{
							"internalType": "uint256",
							"name": "",
							"type": "uint256"
						}
					],
					"stateMutability": "pure",
					"type": "function"
				},
				{
					"inputs": [],
					"name": "withdraw",
					"outputs": [],
					"stateMutability": "nonpayable",
					"type": "function"
				},
				{
					"stateMutability": "payable",
					"type": "receive"
				}
			],
			"devdoc": {
				"kind": "dev",
				"methods": {},
				"version": 1
			},
			"evm": {
				"assembly": "    /* \"FundMe.sol\":179:2298  contract FundMe {... */\n  mstore(0x40, 0xa0)\n    /* \"FundMe.sol\":571:622  constructor() {... */\n  callvalue\n  dup1\n  iszero\n  tag_1\n  jumpi\n  0x00\n  dup1\n  revert\ntag_1:\n  pop\n    /* \"FundMe.sol\":605:615  msg.sender */\n  caller\n    /* \"FundMe.sol\":595:615  i_owner = msg.sender */\n  0xffffffffffffffffffffffffffffffffffffffff\n  and\n  0x80\n  dup2\n  0xffffffffffffffffffffffffffffffffffffffff\n  and\n  dup2\n  mstore\n  pop\n  pop\n    /* \"FundMe.sol\":179:2298  contract FundMe {... */\n  mload(0x80)\n  codecopy(0x00, dataOffset(sub_0), dataSize(sub_0))\n  0x00\n  assignImmutable(\"0xcc143a676b82d5e07b2c9d57717b403ab3c58caa273a42cdb95b15980141a86c\")\n  return(0x00, dataSize(sub_0))\nstop\n\nsub_0: assembly {\n        /* \"FundMe.sol\":179:2298  contract FundMe {... */\n      mstore(0x40, 0x80)\n      jumpi(tag_1, lt(calldatasize, 0x04))\n      shr(0xe0, calldataload(0x00))\n      dup1\n      0x6b69a592\n      gt\n      tag_10\n      jumpi\n      dup1\n      0x6b69a592\n      eq\n      tag_6\n      jumpi\n      dup1\n      0xb60d4288\n      eq\n      tag_7\n      jumpi\n      dup1\n      0xdba6335f\n      eq\n      tag_8\n      jumpi\n      dup1\n      0xdc0d3dff\n      eq\n      tag_9\n      jumpi\n      jump(tag_2)\n    tag_10:\n      dup1\n      0x05e30f51\n      eq\n      tag_3\n      jumpi\n      dup1\n      0x3ccfd60b\n      eq\n      tag_4\n      jumpi\n      dup1\n      0x3e47d6f3\n      eq\n      tag_5\n      jumpi\n      jump(tag_2)\n    tag_1:\n      jumpi(tag_2, calldatasize)\n        /* \"FundMe.sol\":2225:2231  fund() */\n      tag_13\n        /* \"FundMe.sol\":2225:2229  fund */\n      tag_14\n        /* \"FundMe.sol\":2225:2231  fund() */\n      jump\t// in\n    tag_13:\n        /* \"FundMe.sol\":179:2298  contract FundMe {... */\n      stop\n    tag_2:\n        /* \"FundMe.sol\":2282:2288  fund() */\n      tag_17\n        /* \"FundMe.sol\":2282:2286  fund */\n      tag_14\n        /* \"FundMe.sol\":2282:2288  fund() */\n      jump\t// in\n    tag_17:\n        /* \"FundMe.sol\":179:2298  contract FundMe {... */\n      stop\n        /* \"FundMe.sol\":1968:2092  function multiplier(uint256 numberToMultiply) public pure returns (uint256) {... */\n    tag_3:\n      callvalue\n      dup1\n      iszero\n      tag_18\n      jumpi\n      0x00\n      dup1\n      revert\n    tag_18:\n      pop\n      tag_19\n      0x04\n      dup1\n      calldatasize\n      sub\n      dup2\n      add\n      swap1\n      tag_20\n      swap2\n      swap1\n      tag_21\n      jump\t// in\n    tag_20:\n      tag_22\n      jump\t// in\n    tag_19:\n      mload(0x40)\n      tag_23\n      swap2\n      swap1\n      tag_24\n      jump\t// in\n    tag_23:\n      mload(0x40)\n      dup1\n      swap2\n      sub\n      swap1\n      return\n        /* \"FundMe.sol\":912:1740  function withdraw() public onlyOwner {... */\n    tag_4:\n      callvalue\n      dup1\n      iszero\n      tag_25\n      jumpi\n      0x00\n      dup1\n      revert\n    tag_25:\n      pop\n      tag_26\n      tag_27\n      jump\t// in\n    tag_26:\n      stop\n        /* \"FundMe.sol\":385:461  mapping(address funder => uint256 amountFunded) public addressToAmountFunded */\n    tag_5:\n      callvalue\n      dup1\n      iszero\n      tag_28\n      jumpi\n      0x00\n      dup1\n      revert\n    tag_28:\n      pop\n      tag_29\n      0x04\n      dup1\n      calldatasize\n      sub\n      dup2\n      add\n      swap1\n      tag_30\n      swap2\n      swap1\n      tag_31\n      jump\t// in\n    tag_30:\n      tag_32\n      jump\t// in\n    tag_29:\n      mload(0x40)\n      tag_33\n      swap2\n      swap1\n      tag_24\n      jump\t// in\n    tag_33:\n      mload(0x40)\n      dup1\n      swap2\n      sub\n      swap1\n      return\n        /* \"FundMe.sol\":240:286  uint256 public constant MINIMUM_USD = 5 * 1e18 */\n    tag_6:\n      callvalue\n      dup1\n      iszero\n      tag_34\n      jumpi\n      0x00\n      dup1\n      revert\n    tag_34:\n      pop\n      tag_35\n      tag_36\n      jump\t// in\n    tag_35:\n      mload(0x40)\n      tag_37\n      swap2\n      swap1\n      tag_24\n      jump\t// in\n    tag_37:\n      mload(0x40)\n      dup1\n      swap2\n      sub\n      swap1\n      return\n        /* \"FundMe.sol\":628:906  function fund() public payable {... */\n    tag_7:\n      tag_38\n      tag_14\n      jump\t// in\n    tag_38:\n      stop\n        /* \"FundMe.sol\":468:500  address public immutable i_owner */\n    tag_8:\n      callvalue\n      dup1\n      iszero\n      tag_39\n      jumpi\n      0x00\n      dup1\n      revert\n    tag_39:\n      pop\n      tag_40\n      tag_41\n      jump\t// in\n    tag_40:\n      mload(0x40)\n      tag_42\n      swap2\n      swap1\n      tag_43\n      jump\t// in\n    tag_42:\n      mload(0x40)\n      dup1\n      swap2\n      sub\n      swap1\n      return\n        /* \"FundMe.sol\":355:379  address[] public funders */\n    tag_9:\n      callvalue\n      dup1\n      iszero\n      tag_44\n      jumpi\n      0x00\n      dup1\n      revert\n    tag_44:\n      pop\n      tag_45\n      0x04\n      dup1\n      calldatasize\n      sub\n      dup2\n      add\n      swap1\n      tag_46\n      swap2\n      swap1\n      tag_21\n      jump\t// in\n    tag_46:\n      tag_47\n      jump\t// in\n    tag_45:\n      mload(0x40)\n      tag_48\n      swap2\n      swap1\n      tag_43\n      jump\t// in\n    tag_48:\n      mload(0x40)\n      dup1\n      swap2\n      sub\n      swap1\n      return\n        /* \"FundMe.sol\":628:906  function fund() public payable {... */\n    tag_14:\n        /* \"FundMe.sol\":278:286  5 * 1e18 */\n      0x4563918244f40000\n        /* \"FundMe.sol\":677:706  msg.value.getConversionRate() */\n      tag_50\n        /* \"FundMe.sol\":677:686  msg.value */\n      callvalue\n        /* \"FundMe.sol\":677:704  msg.value.getConversionRate */\n      tag_51\n        /* \"FundMe.sol\":677:706  msg.value.getConversionRate() */\n      jump\t// in\n    tag_50:\n        /* \"FundMe.sol\":677:721  msg.value.getConversionRate() >= MINIMUM_USD */\n      lt\n      iszero\n        /* \"FundMe.sol\":669:748  require(msg.value.getConversionRate() >= MINIMUM_USD, \"Didn't send enough ETH\") */\n      tag_52\n      jumpi\n      mload(0x40)\n      0x08c379a000000000000000000000000000000000000000000000000000000000\n      dup2\n      mstore\n      0x04\n      add\n      tag_53\n      swap1\n      tag_54\n      jump\t// in\n    tag_53:\n      mload(0x40)\n      dup1\n      swap2\n      sub\n      swap1\n      revert\n    tag_52:\n        /* \"FundMe.sol\":819:826  funders */\n      0x00\n        /* \"FundMe.sol\":832:842  msg.sender */\n      caller\n        /* \"FundMe.sol\":819:843  funders.push(msg.sender) */\n      swap1\n      dup1\n      0x01\n      dup2\n      sload\n      add\n      dup1\n      dup3\n      sstore\n      dup1\n      swap2\n      pop\n      pop\n      0x01\n      swap1\n      sub\n      swap1\n      0x00\n      mstore\n      keccak256(0x00, 0x20)\n      add\n      0x00\n      swap1\n      swap2\n      swap1\n      swap2\n      swap1\n      swap2\n      0x0100\n      exp\n      dup2\n      sload\n      dup2\n      0xffffffffffffffffffffffffffffffffffffffff\n      mul\n      not\n      and\n      swap1\n      dup4\n      0xffffffffffffffffffffffffffffffffffffffff\n      and\n      mul\n      or\n      swap1\n      sstore\n      pop\n        /* \"FundMe.sol\":890:899  msg.value */\n      callvalue\n        /* \"FundMe.sol\":853:874  addressToAmountFunded */\n      0x01\n        /* \"FundMe.sol\":853:886  addressToAmountFunded[msg.sender] */\n      0x00\n        /* \"FundMe.sol\":875:885  msg.sender */\n      caller\n        /* \"FundMe.sol\":853:886  addressToAmountFunded[msg.sender] */\n      0xffffffffffffffffffffffffffffffffffffffff\n      and\n      0xffffffffffffffffffffffffffffffffffffffff\n      and\n      dup2\n      mstore\n      0x20\n      add\n      swap1\n      dup2\n      mstore\n      0x20\n      add\n      0x00\n      keccak256\n      0x00\n        /* \"FundMe.sol\":853:899  addressToAmountFunded[msg.sender] += msg.value */\n      dup3\n      dup3\n      sload\n      tag_56\n      swap2\n      swap1\n      tag_57\n      jump\t// in\n    tag_56:\n      swap3\n      pop\n      pop\n      dup2\n      swap1\n      sstore\n      pop\n        /* \"FundMe.sol\":628:906  function fund() public payable {... */\n      jump\t// out\n        /* \"FundMe.sol\":1968:2092  function multiplier(uint256 numberToMultiply) public pure returns (uint256) {... */\n    tag_22:\n        /* \"FundMe.sol\":2035:2042  uint256 */\n      0x00\n        /* \"FundMe.sol\":2080:2085  10e10 */\n      0x174876e800\n        /* \"FundMe.sol\":2061:2077  numberToMultiply */\n      dup3\n        /* \"FundMe.sol\":2061:2085  numberToMultiply * 10e10 */\n      tag_59\n      swap2\n      swap1\n      tag_60\n      jump\t// in\n    tag_59:\n        /* \"FundMe.sol\":2054:2085  return numberToMultiply * 10e10 */\n      swap1\n      pop\n        /* \"FundMe.sol\":1968:2092  function multiplier(uint256 numberToMultiply) public pure returns (uint256) {... */\n      swap2\n      swap1\n      pop\n      jump\t// out\n        /* \"FundMe.sol\":912:1740  function withdraw() public onlyOwner {... */\n    tag_27:\n        /* \"FundMe.sol\":1914:1921  i_owner */\n      immutable(\"0xcc143a676b82d5e07b2c9d57717b403ab3c58caa273a42cdb95b15980141a86c\")\n        /* \"FundMe.sol\":1900:1921  msg.sender != i_owner */\n      0xffffffffffffffffffffffffffffffffffffffff\n      and\n        /* \"FundMe.sol\":1900:1910  msg.sender */\n      caller\n        /* \"FundMe.sol\":1900:1921  msg.sender != i_owner */\n      0xffffffffffffffffffffffffffffffffffffffff\n      and\n      eq\n        /* \"FundMe.sol\":1896:1945  if (msg.sender != i_owner) { revert NotOwner(); } */\n      tag_62\n      jumpi\n        /* \"FundMe.sol\":1932:1942  NotOwner() */\n      mload(0x40)\n      0x30cd747100000000000000000000000000000000000000000000000000000000\n      dup2\n      mstore\n      0x04\n      add\n      mload(0x40)\n      dup1\n      swap2\n      sub\n      swap1\n      revert\n        /* \"FundMe.sol\":1896:1945  if (msg.sender != i_owner) { revert NotOwner(); } */\n    tag_62:\n        /* \"FundMe.sol\":963:982  uint256 funderIndex */\n      0x00\n        /* \"FundMe.sol\":959:1141  for(uint256 funderIndex = 0; funderIndex < funders.length; funderIndex++){... */\n    tag_64:\n        /* \"FundMe.sol\":1002:1009  funders */\n      0x00\n        /* \"FundMe.sol\":1002:1016  funders.length */\n      dup1\n      sload\n      swap1\n      pop\n        /* \"FundMe.sol\":988:999  funderIndex */\n      dup2\n        /* \"FundMe.sol\":988:1016  funderIndex < funders.length */\n      lt\n        /* \"FundMe.sol\":959:1141  for(uint256 funderIndex = 0; funderIndex < funders.length; funderIndex++){... */\n      iszero\n      tag_65\n      jumpi\n        /* \"FundMe.sol\":1046:1060  address funder */\n      0x00\n        /* \"FundMe.sol\":1063:1070  funders */\n      dup1\n        /* \"FundMe.sol\":1071:1082  funderIndex */\n      dup3\n        /* \"FundMe.sol\":1063:1083  funders[funderIndex] */\n      dup2\n      sload\n      dup2\n      lt\n      tag_67\n      jumpi\n      tag_68\n      tag_69\n      jump\t// in\n    tag_68:\n    tag_67:\n      swap1\n      0x00\n      mstore\n      keccak256(0x00, 0x20)\n      add\n      0x00\n      swap1\n      sload\n      swap1\n      0x0100\n      exp\n      swap1\n      div\n      0xffffffffffffffffffffffffffffffffffffffff\n      and\n        /* \"FundMe.sol\":1046:1083  address funder = funders[funderIndex] */\n      swap1\n      pop\n        /* \"FundMe.sol\":1129:1130  0 */\n      0x00\n        /* \"FundMe.sol\":1097:1118  addressToAmountFunded */\n      0x01\n        /* \"FundMe.sol\":1097:1126  addressToAmountFunded[funder] */\n      0x00\n        /* \"FundMe.sol\":1119:1125  funder */\n      dup4\n        /* \"FundMe.sol\":1097:1126  addressToAmountFunded[funder] */\n      0xffffffffffffffffffffffffffffffffffffffff\n      and\n      0xffffffffffffffffffffffffffffffffffffffff\n      and\n      dup2\n      mstore\n      0x20\n      add\n      swap1\n      dup2\n      mstore\n      0x20\n      add\n      0x00\n      keccak256\n        /* \"FundMe.sol\":1097:1130  addressToAmountFunded[funder] = 0 */\n      dup2\n      swap1\n      sstore\n      pop\n        /* \"FundMe.sol\":1032:1141  {... */\n      pop\n        /* \"FundMe.sol\":1018:1031  funderIndex++ */\n      dup1\n      dup1\n      tag_71\n      swap1\n      tag_72\n      jump\t// in\n    tag_71:\n      swap2\n      pop\n      pop\n        /* \"FundMe.sol\":959:1141  for(uint256 funderIndex = 0; funderIndex < funders.length; funderIndex++){... */\n      jump(tag_64)\n    tag_65:\n      pop\n        /* \"FundMe.sol\":1174:1175  0 */\n      0x00\n        /* \"FundMe.sol\":1160:1176  new address[](0) */\n      0xffffffffffffffff\n      dup2\n      gt\n      iszero\n      tag_73\n      jumpi\n      tag_74\n      tag_75\n      jump\t// in\n    tag_74:\n    tag_73:\n      mload(0x40)\n      swap1\n      dup1\n      dup3\n      mstore\n      dup1\n      0x20\n      mul\n      0x20\n      add\n      dup3\n      add\n      0x40\n      mstore\n      dup1\n      iszero\n      tag_76\n      jumpi\n      dup2\n      0x20\n      add\n      0x20\n      dup3\n      mul\n      dup1\n      calldatasize\n      dup4\n      calldatacopy\n      dup1\n      dup3\n      add\n      swap2\n      pop\n      pop\n      swap1\n      pop\n    tag_76:\n      pop\n        /* \"FundMe.sol\":1150:1157  funders */\n      0x00\n        /* \"FundMe.sol\":1150:1176  funders = new address[](0) */\n      swap1\n      dup1\n      mload\n      swap1\n      0x20\n      add\n      swap1\n      tag_77\n      swap3\n      swap2\n      swap1\n      tag_78\n      jump\t// in\n    tag_77:\n      pop\n        /* \"FundMe.sol\":1608:1624  bool callSuccess */\n      0x00\n        /* \"FundMe.sol\":1638:1648  msg.sender */\n      caller\n        /* \"FundMe.sol\":1630:1654  payable(msg.sender).call */\n      0xffffffffffffffffffffffffffffffffffffffff\n      and\n        /* \"FundMe.sol\":1662:1683  address(this).balance */\n      selfbalance\n        /* \"FundMe.sol\":1630:1688  payable(msg.sender).call{value: address(this).balance}(\"\") */\n      mload(0x40)\n      tag_79\n      swap1\n      tag_80\n      jump\t// in\n    tag_79:\n      0x00\n      mload(0x40)\n      dup1\n      dup4\n      sub\n      dup2\n      dup6\n      dup8\n      gas\n      call\n      swap3\n      pop\n      pop\n      pop\n      returndatasize\n      dup1\n      0x00\n      dup2\n      eq\n      tag_83\n      jumpi\n      mload(0x40)\n      swap2\n      pop\n      and(add(returndatasize, 0x3f), not(0x1f))\n      dup3\n      add\n      0x40\n      mstore\n      returndatasize\n      dup3\n      mstore\n      returndatasize\n      0x00\n      0x20\n      dup5\n      add\n      returndatacopy\n      jump(tag_82)\n    tag_83:\n      0x60\n      swap2\n      pop\n    tag_82:\n      pop\n        /* \"FundMe.sol\":1607:1688  (bool callSuccess, ) = payable(msg.sender).call{value: address(this).balance}(\"\") */\n      pop\n      swap1\n      pop\n        /* \"FundMe.sol\":1706:1717  callSuccess */\n      dup1\n        /* \"FundMe.sol\":1698:1733  require(callSuccess, \"Call failed\") */\n      tag_84\n      jumpi\n      mload(0x40)\n      0x08c379a000000000000000000000000000000000000000000000000000000000\n      dup2\n      mstore\n      0x04\n      add\n      tag_85\n      swap1\n      tag_86\n      jump\t// in\n    tag_85:\n      mload(0x40)\n      dup1\n      swap2\n      sub\n      swap1\n      revert\n    tag_84:\n        /* \"FundMe.sol\":949:1740  {... */\n      pop\n        /* \"FundMe.sol\":912:1740  function withdraw() public onlyOwner {... */\n      jump\t// out\n        /* \"FundMe.sol\":385:461  mapping(address funder => uint256 amountFunded) public addressToAmountFunded */\n    tag_32:\n      mstore(0x20, 0x01)\n      dup1\n      0x00\n      mstore\n      keccak256(0x00, 0x40)\n      0x00\n      swap2\n      pop\n      swap1\n      pop\n      sload\n      dup2\n      jump\t// out\n        /* \"FundMe.sol\":240:286  uint256 public constant MINIMUM_USD = 5 * 1e18 */\n    tag_36:\n        /* \"FundMe.sol\":278:286  5 * 1e18 */\n      0x4563918244f40000\n        /* \"FundMe.sol\":240:286  uint256 public constant MINIMUM_USD = 5 * 1e18 */\n      dup2\n      jump\t// out\n        /* \"FundMe.sol\":468:500  address public immutable i_owner */\n    tag_41:\n      immutable(\"0xcc143a676b82d5e07b2c9d57717b403ab3c58caa273a42cdb95b15980141a86c\")\n      dup2\n      jump\t// out\n        /* \"FundMe.sol\":355:379  address[] public funders */\n    tag_47:\n      0x00\n      dup2\n      dup2\n      sload\n      dup2\n      lt\n      tag_87\n      jumpi\n      0x00\n      dup1\n      revert\n    tag_87:\n      swap1\n      0x00\n      mstore\n      keccak256(0x00, 0x20)\n      add\n      0x00\n      swap2\n      pop\n      sload\n      swap1\n      0x0100\n      exp\n      swap1\n      div\n      0xffffffffffffffffffffffffffffffffffffffff\n      and\n      dup2\n      jump\t// out\n        /* \"PriceConverter.sol\":613:831  function getConversionRate(uint256 ethAmount) internal view returns(uint256) {... */\n    tag_51:\n        /* \"PriceConverter.sol\":681:688  uint256 */\n      0x00\n        /* \"PriceConverter.sol\":700:716  uint256 ethPrice */\n      dup1\n        /* \"PriceConverter.sol\":719:729  getPrice() */\n      tag_90\n        /* \"PriceConverter.sol\":719:727  getPrice */\n      tag_91\n        /* \"PriceConverter.sol\":719:729  getPrice() */\n      jump\t// in\n    tag_90:\n        /* \"PriceConverter.sol\":700:729  uint256 ethPrice = getPrice() */\n      swap1\n      pop\n        /* \"PriceConverter.sol\":739:761  uint256 ethAmountInUsd */\n      0x00\n        /* \"PriceConverter.sol\":789:793  1e18 */\n      0x0de0b6b3a7640000\n        /* \"PriceConverter.sol\":776:785  ethAmount */\n      dup5\n        /* \"PriceConverter.sol\":765:773  ethPrice */\n      dup4\n        /* \"PriceConverter.sol\":765:785  ethPrice * ethAmount */\n      tag_92\n      swap2\n      swap1\n      tag_60\n      jump\t// in\n    tag_92:\n        /* \"PriceConverter.sol\":764:793  (ethPrice * ethAmount) / 1e18 */\n      tag_93\n      swap2\n      swap1\n      tag_94\n      jump\t// in\n    tag_93:\n        /* \"PriceConverter.sol\":739:793  uint256 ethAmountInUsd = (ethPrice * ethAmount) / 1e18 */\n      swap1\n      pop\n        /* \"PriceConverter.sol\":810:824  ethAmountInUsd */\n      dup1\n        /* \"PriceConverter.sol\":803:824  return ethAmountInUsd */\n      swap3\n      pop\n      pop\n      pop\n        /* \"PriceConverter.sol\":613:831  function getConversionRate(uint256 ethAmount) internal view returns(uint256) {... */\n      swap2\n      swap1\n      pop\n      jump\t// out\n        /* \"PriceConverter.sol\":194:607  function getPrice() internal view returns(uint256) {... */\n    tag_91:\n        /* \"PriceConverter.sol\":236:243  uint256 */\n      0x00\n        /* \"PriceConverter.sol\":339:370  AggregatorV3Interface priceFeed */\n      dup1\n        /* \"PriceConverter.sol\":395:437  0x694AA1769357215DE4FAC081bf1f309aDC325306 */\n      0x694aa1769357215de4fac081bf1f309adc325306\n        /* \"PriceConverter.sol\":339:438  AggregatorV3Interface priceFeed = AggregatorV3Interface(0x694AA1769357215DE4FAC081bf1f309aDC325306) */\n      swap1\n      pop\n        /* \"PriceConverter.sol\":451:460  int price */\n      0x00\n        /* \"PriceConverter.sol\":470:479  priceFeed */\n      dup2\n        /* \"PriceConverter.sol\":470:495  priceFeed.latestRoundData */\n      0xffffffffffffffffffffffffffffffffffffffff\n      and\n      0xfeaf968c\n        /* \"PriceConverter.sol\":470:497  priceFeed.latestRoundData() */\n      mload(0x40)\n      dup2\n      0xffffffff\n      and\n      0xe0\n      shl\n      dup2\n      mstore\n      0x04\n      add\n      0xa0\n      mload(0x40)\n      dup1\n      dup4\n      sub\n      dup2\n      dup7\n      gas\n      staticcall\n      iszero\n      dup1\n      iszero\n      tag_97\n      jumpi\n      returndatasize\n      0x00\n      dup1\n      returndatacopy\n      revert(0x00, returndatasize)\n    tag_97:\n      pop\n      pop\n      pop\n      pop\n      mload(0x40)\n      returndatasize\n      not(0x1f)\n      0x1f\n      dup3\n      add\n      and\n      dup3\n      add\n      dup1\n      0x40\n      mstore\n      pop\n      dup2\n      add\n      swap1\n      tag_98\n      swap2\n      swap1\n      tag_99\n      jump\t// in\n    tag_98:\n        /* \"PriceConverter.sol\":448:497  (, int price, , , ) = priceFeed.latestRoundData() */\n      pop\n      pop\n      pop\n      swap2\n      pop\n      pop\n        /* \"PriceConverter.sol\":595:599  1e10 */\n      0x02540be400\n        /* \"PriceConverter.sol\":587:592  price */\n      dup2\n        /* \"PriceConverter.sol\":587:599  price * 1e10 */\n      tag_100\n      swap2\n      swap1\n      tag_101\n      jump\t// in\n    tag_100:\n        /* \"PriceConverter.sol\":572:600  return uint256(price * 1e10) */\n      swap3\n      pop\n      pop\n      pop\n        /* \"PriceConverter.sol\":194:607  function getPrice() internal view returns(uint256) {... */\n      swap1\n      jump\t// out\n    tag_78:\n      dup3\n      dup1\n      sload\n      dup3\n      dup3\n      sstore\n      swap1\n      0x00\n      mstore\n      keccak256(0x00, 0x20)\n      swap1\n      dup2\n      add\n      swap3\n      dup3\n      iszero\n      tag_102\n      jumpi\n      swap2\n      0x20\n      mul\n      dup3\n      add\n    tag_103:\n      dup3\n      dup2\n      gt\n      iszero\n      tag_104\n      jumpi\n      dup3\n      mload\n      dup3\n      exp(0x0100, 0x00)\n      dup2\n      sload\n      dup2\n      0xffffffffffffffffffffffffffffffffffffffff\n      mul\n      not\n      and\n      swap1\n      dup4\n      0xffffffffffffffffffffffffffffffffffffffff\n      and\n      mul\n      or\n      swap1\n      sstore\n      pop\n      swap2\n      0x20\n      add\n      swap2\n      swap1\n      0x01\n      add\n      swap1\n      jump(tag_103)\n    tag_104:\n    tag_102:\n      pop\n      swap1\n      pop\n      tag_105\n      swap2\n      swap1\n      tag_106\n      jump\t// in\n    tag_105:\n      pop\n      swap1\n      jump\t// out\n    tag_106:\n    tag_107:\n      dup1\n      dup3\n      gt\n      iszero\n      tag_108\n      jumpi\n      0x00\n      dup2\n      0x00\n      swap1\n      sstore\n      pop\n      0x01\n      add\n      jump(tag_107)\n    tag_108:\n      pop\n      swap1\n      jump\t// out\n        /* \"#utility.yul\":88:205   */\n    tag_110:\n        /* \"#utility.yul\":197:198   */\n      0x00\n        /* \"#utility.yul\":194:195   */\n      dup1\n        /* \"#utility.yul\":187:199   */\n      revert\n        /* \"#utility.yul\":334:411   */\n    tag_112:\n        /* \"#utility.yul\":371:378   */\n      0x00\n        /* \"#utility.yul\":400:405   */\n      dup2\n        /* \"#utility.yul\":389:405   */\n      swap1\n      pop\n        /* \"#utility.yul\":334:411   */\n      swap2\n      swap1\n      pop\n      jump\t// out\n        /* \"#utility.yul\":417:539   */\n    tag_113:\n        /* \"#utility.yul\":490:514   */\n      tag_144\n        /* \"#utility.yul\":508:513   */\n      dup2\n        /* \"#utility.yul\":490:514   */\n      tag_112\n      jump\t// in\n    tag_144:\n        /* \"#utility.yul\":483:488   */\n      dup2\n        /* \"#utility.yul\":480:515   */\n      eq\n        /* \"#utility.yul\":470:533   */\n      tag_145\n      jumpi\n        /* \"#utility.yul\":529:530   */\n      0x00\n        /* \"#utility.yul\":526:527   */\n      dup1\n        /* \"#utility.yul\":519:531   */\n      revert\n        /* \"#utility.yul\":470:533   */\n    tag_145:\n        /* \"#utility.yul\":417:539   */\n      pop\n      jump\t// out\n        /* \"#utility.yul\":545:684   */\n    tag_114:\n        /* \"#utility.yul\":591:596   */\n      0x00\n        /* \"#utility.yul\":629:635   */\n      dup2\n        /* \"#utility.yul\":616:636   */\n      calldataload\n        /* \"#utility.yul\":607:636   */\n      swap1\n      pop\n        /* \"#utility.yul\":645:678   */\n      tag_147\n        /* \"#utility.yul\":672:677   */\n      dup2\n        /* \"#utility.yul\":645:678   */\n      tag_113\n      jump\t// in\n    tag_147:\n        /* \"#utility.yul\":545:684   */\n      swap3\n      swap2\n      pop\n      pop\n      jump\t// out\n        /* \"#utility.yul\":690:1019   */\n    tag_21:\n        /* \"#utility.yul\":749:755   */\n      0x00\n        /* \"#utility.yul\":798:800   */\n      0x20\n        /* \"#utility.yul\":786:795   */\n      dup3\n        /* \"#utility.yul\":777:784   */\n      dup5\n        /* \"#utility.yul\":773:796   */\n      sub\n        /* \"#utility.yul\":769:801   */\n      slt\n        /* \"#utility.yul\":766:885   */\n      iszero\n      tag_149\n      jumpi\n        /* \"#utility.yul\":804:883   */\n      tag_150\n      tag_110\n      jump\t// in\n    tag_150:\n        /* \"#utility.yul\":766:885   */\n    tag_149:\n        /* \"#utility.yul\":924:925   */\n      0x00\n        /* \"#utility.yul\":949:1002   */\n      tag_151\n        /* \"#utility.yul\":994:1001   */\n      dup5\n        /* \"#utility.yul\":985:991   */\n      dup3\n        /* \"#utility.yul\":974:983   */\n      dup6\n        /* \"#utility.yul\":970:992   */\n      add\n        /* \"#utility.yul\":949:1002   */\n      tag_114\n      jump\t// in\n    tag_151:\n        /* \"#utility.yul\":939:1002   */\n      swap2\n      pop\n        /* \"#utility.yul\":895:1012   */\n      pop\n        /* \"#utility.yul\":690:1019   */\n      swap3\n      swap2\n      pop\n      pop\n      jump\t// out\n        /* \"#utility.yul\":1025:1143   */\n    tag_115:\n        /* \"#utility.yul\":1112:1136   */\n      tag_153\n        /* \"#utility.yul\":1130:1135   */\n      dup2\n        /* \"#utility.yul\":1112:1136   */\n      tag_112\n      jump\t// in\n    tag_153:\n        /* \"#utility.yul\":1107:1110   */\n      dup3\n        /* \"#utility.yul\":1100:1137   */\n      mstore\n        /* \"#utility.yul\":1025:1143   */\n      pop\n      pop\n      jump\t// out\n        /* \"#utility.yul\":1149:1371   */\n    tag_24:\n        /* \"#utility.yul\":1242:1246   */\n      0x00\n        /* \"#utility.yul\":1280:1282   */\n      0x20\n        /* \"#utility.yul\":1269:1278   */\n      dup3\n        /* \"#utility.yul\":1265:1283   */\n      add\n        /* \"#utility.yul\":1257:1283   */\n      swap1\n      pop\n        /* \"#utility.yul\":1293:1364   */\n      tag_155\n        /* \"#utility.yul\":1361:1362   */\n      0x00\n        /* \"#utility.yul\":1350:1359   */\n      dup4\n        /* \"#utility.yul\":1346:1363   */\n      add\n        /* \"#utility.yul\":1337:1343   */\n      dup5\n        /* \"#utility.yul\":1293:1364   */\n      tag_115\n      jump\t// in\n    tag_155:\n        /* \"#utility.yul\":1149:1371   */\n      swap3\n      swap2\n      pop\n      pop\n      jump\t// out\n        /* \"#utility.yul\":1377:1503   */\n    tag_116:\n        /* \"#utility.yul\":1414:1421   */\n      0x00\n        /* \"#utility.yul\":1454:1496   */\n      0xffffffffffffffffffffffffffffffffffffffff\n        /* \"#utility.yul\":1447:1452   */\n      dup3\n        /* \"#utility.yul\":1443:1497   */\n      and\n        /* \"#utility.yul\":1432:1497   */\n      swap1\n      pop\n        /* \"#utility.yul\":1377:1503   */\n      swap2\n      swap1\n      pop\n      jump\t// out\n        /* \"#utility.yul\":1509:1605   */\n    tag_117:\n        /* \"#utility.yul\":1546:1553   */\n      0x00\n        /* \"#utility.yul\":1575:1599   */\n      tag_158\n        /* \"#utility.yul\":1593:1598   */\n      dup3\n        /* \"#utility.yul\":1575:1599   */\n      tag_116\n      jump\t// in\n    tag_158:\n        /* \"#utility.yul\":1564:1599   */\n      swap1\n      pop\n        /* \"#utility.yul\":1509:1605   */\n      swap2\n      swap1\n      pop\n      jump\t// out\n        /* \"#utility.yul\":1611:1733   */\n    tag_118:\n        /* \"#utility.yul\":1684:1708   */\n      tag_160\n        /* \"#utility.yul\":1702:1707   */\n      dup2\n        /* \"#utility.yul\":1684:1708   */\n      tag_117\n      jump\t// in\n    tag_160:\n        /* \"#utility.yul\":1677:1682   */\n      dup2\n        /* \"#utility.yul\":1674:1709   */\n      eq\n        /* \"#utility.yul\":1664:1727   */\n      tag_161\n      jumpi\n        /* \"#utility.yul\":1723:1724   */\n      0x00\n        /* \"#utility.yul\":1720:1721   */\n      dup1\n        /* \"#utility.yul\":1713:1725   */\n      revert\n        /* \"#utility.yul\":1664:1727   */\n    tag_161:\n        /* \"#utility.yul\":1611:1733   */\n      pop\n      jump\t// out\n        /* \"#utility.yul\":1739:1878   */\n    tag_119:\n        /* \"#utility.yul\":1785:1790   */\n      0x00\n        /* \"#utility.yul\":1823:1829   */\n      dup2\n        /* \"#utility.yul\":1810:1830   */\n      calldataload\n        /* \"#utility.yul\":1801:1830   */\n      swap1\n      pop\n        /* \"#utility.yul\":1839:1872   */\n      tag_163\n        /* \"#utility.yul\":1866:1871   */\n      dup2\n        /* \"#utility.yul\":1839:1872   */\n      tag_118\n      jump\t// in\n    tag_163:\n        /* \"#utility.yul\":1739:1878   */\n      swap3\n      swap2\n      pop\n      pop\n      jump\t// out\n        /* \"#utility.yul\":1884:2213   */\n    tag_31:\n        /* \"#utility.yul\":1943:1949   */\n      0x00\n        /* \"#utility.yul\":1992:1994   */\n      0x20\n        /* \"#utility.yul\":1980:1989   */\n      dup3\n        /* \"#utility.yul\":1971:1978   */\n      dup5\n        /* \"#utility.yul\":1967:1990   */\n      sub\n        /* \"#utility.yul\":1963:1995   */\n      slt\n        /* \"#utility.yul\":1960:2079   */\n      iszero\n      tag_165\n      jumpi\n        /* \"#utility.yul\":1998:2077   */\n      tag_166\n      tag_110\n      jump\t// in\n    tag_166:\n        /* \"#utility.yul\":1960:2079   */\n    tag_165:\n        /* \"#utility.yul\":2118:2119   */\n      0x00\n        /* \"#utility.yul\":2143:2196   */\n      tag_167\n        /* \"#utility.yul\":2188:2195   */\n      dup5\n        /* \"#utility.yul\":2179:2185   */\n      dup3\n        /* \"#utility.yul\":2168:2177   */\n      dup6\n        /* \"#utility.yul\":2164:2186   */\n      add\n        /* \"#utility.yul\":2143:2196   */\n      tag_119\n      jump\t// in\n    tag_167:\n        /* \"#utility.yul\":2133:2196   */\n      swap2\n      pop\n        /* \"#utility.yul\":2089:2206   */\n      pop\n        /* \"#utility.yul\":1884:2213   */\n      swap3\n      swap2\n      pop\n      pop\n      jump\t// out\n        /* \"#utility.yul\":2219:2337   */\n    tag_120:\n        /* \"#utility.yul\":2306:2330   */\n      tag_169\n        /* \"#utility.yul\":2324:2329   */\n      dup2\n        /* \"#utility.yul\":2306:2330   */\n      tag_117\n      jump\t// in\n    tag_169:\n        /* \"#utility.yul\":2301:2304   */\n      dup3\n        /* \"#utility.yul\":2294:2331   */\n      mstore\n        /* \"#utility.yul\":2219:2337   */\n      pop\n      pop\n      jump\t// out\n        /* \"#utility.yul\":2343:2565   */\n    tag_43:\n        /* \"#utility.yul\":2436:2440   */\n      0x00\n        /* \"#utility.yul\":2474:2476   */\n      0x20\n        /* \"#utility.yul\":2463:2472   */\n      dup3\n        /* \"#utility.yul\":2459:2477   */\n      add\n        /* \"#utility.yul\":2451:2477   */\n      swap1\n      pop\n        /* \"#utility.yul\":2487:2558   */\n      tag_171\n        /* \"#utility.yul\":2555:2556   */\n      0x00\n        /* \"#utility.yul\":2544:2553   */\n      dup4\n        /* \"#utility.yul\":2540:2557   */\n      add\n        /* \"#utility.yul\":2531:2537   */\n      dup5\n        /* \"#utility.yul\":2487:2558   */\n      tag_120\n      jump\t// in\n    tag_171:\n        /* \"#utility.yul\":2343:2565   */\n      swap3\n      swap2\n      pop\n      pop\n      jump\t// out\n        /* \"#utility.yul\":2571:2740   */\n    tag_121:\n        /* \"#utility.yul\":2655:2666   */\n      0x00\n        /* \"#utility.yul\":2689:2695   */\n      dup3\n        /* \"#utility.yul\":2684:2687   */\n      dup3\n        /* \"#utility.yul\":2677:2696   */\n      mstore\n        /* \"#utility.yul\":2729:2733   */\n      0x20\n        /* \"#utility.yul\":2724:2727   */\n      dup3\n        /* \"#utility.yul\":2720:2734   */\n      add\n        /* \"#utility.yul\":2705:2734   */\n      swap1\n      pop\n        /* \"#utility.yul\":2571:2740   */\n      swap3\n      swap2\n      pop\n      pop\n      jump\t// out\n        /* \"#utility.yul\":2746:2918   */\n    tag_122:\n        /* \"#utility.yul\":2886:2910   */\n      0x4469646e27742073656e6420656e6f7567682045544800000000000000000000\n        /* \"#utility.yul\":2882:2883   */\n      0x00\n        /* \"#utility.yul\":2874:2880   */\n      dup3\n        /* \"#utility.yul\":2870:2884   */\n      add\n        /* \"#utility.yul\":2863:2911   */\n      mstore\n        /* \"#utility.yul\":2746:2918   */\n      pop\n      jump\t// out\n        /* \"#utility.yul\":2924:3290   */\n    tag_123:\n        /* \"#utility.yul\":3066:3069   */\n      0x00\n        /* \"#utility.yul\":3087:3154   */\n      tag_175\n        /* \"#utility.yul\":3151:3153   */\n      0x16\n        /* \"#utility.yul\":3146:3149   */\n      dup4\n        /* \"#utility.yul\":3087:3154   */\n      tag_121\n      jump\t// in\n    tag_175:\n        /* \"#utility.yul\":3080:3154   */\n      swap2\n      pop\n        /* \"#utility.yul\":3163:3256   */\n      tag_176\n        /* \"#utility.yul\":3252:3255   */\n      dup3\n        /* \"#utility.yul\":3163:3256   */\n      tag_122\n      jump\t// in\n    tag_176:\n        /* \"#utility.yul\":3281:3283   */\n      0x20\n        /* \"#utility.yul\":3276:3279   */\n      dup3\n        /* \"#utility.yul\":3272:3284   */\n      add\n        /* \"#utility.yul\":3265:3284   */\n      swap1\n      pop\n        /* \"#utility.yul\":2924:3290   */\n      swap2\n      swap1\n      pop\n      jump\t// out\n        /* \"#utility.yul\":3296:3715   */\n    tag_54:\n        /* \"#utility.yul\":3462:3466   */\n      0x00\n        /* \"#utility.yul\":3500:3502   */\n      0x20\n        /* \"#utility.yul\":3489:3498   */\n      dup3\n        /* \"#utility.yul\":3485:3503   */\n      add\n        /* \"#utility.yul\":3477:3503   */\n      swap1\n      pop\n        /* \"#utility.yul\":3549:3558   */\n      dup2\n        /* \"#utility.yul\":3543:3547   */\n      dup2\n        /* \"#utility.yul\":3539:3559   */\n      sub\n        /* \"#utility.yul\":3535:3536   */\n      0x00\n        /* \"#utility.yul\":3524:3533   */\n      dup4\n        /* \"#utility.yul\":3520:3537   */\n      add\n        /* \"#utility.yul\":3513:3560   */\n      mstore\n        /* \"#utility.yul\":3577:3708   */\n      tag_178\n        /* \"#utility.yul\":3703:3707   */\n      dup2\n        /* \"#utility.yul\":3577:3708   */\n      tag_123\n      jump\t// in\n    tag_178:\n        /* \"#utility.yul\":3569:3708   */\n      swap1\n      pop\n        /* \"#utility.yul\":3296:3715   */\n      swap2\n      swap1\n      pop\n      jump\t// out\n        /* \"#utility.yul\":3721:3901   */\n    tag_124:\n        /* \"#utility.yul\":3769:3846   */\n      0x4e487b7100000000000000000000000000000000000000000000000000000000\n        /* \"#utility.yul\":3766:3767   */\n      0x00\n        /* \"#utility.yul\":3759:3847   */\n      mstore\n        /* \"#utility.yul\":3866:3870   */\n      0x11\n        /* \"#utility.yul\":3863:3864   */\n      0x04\n        /* \"#utility.yul\":3856:3871   */\n      mstore\n        /* \"#utility.yul\":3890:3894   */\n      0x24\n        /* \"#utility.yul\":3887:3888   */\n      0x00\n        /* \"#utility.yul\":3880:3895   */\n      revert\n        /* \"#utility.yul\":3907:4098   */\n    tag_57:\n        /* \"#utility.yul\":3947:3950   */\n      0x00\n        /* \"#utility.yul\":3966:3986   */\n      tag_181\n        /* \"#utility.yul\":3984:3985   */\n      dup3\n        /* \"#utility.yul\":3966:3986   */\n      tag_112\n      jump\t// in\n    tag_181:\n        /* \"#utility.yul\":3961:3986   */\n      swap2\n      pop\n        /* \"#utility.yul\":4000:4020   */\n      tag_182\n        /* \"#utility.yul\":4018:4019   */\n      dup4\n        /* \"#utility.yul\":4000:4020   */\n      tag_112\n      jump\t// in\n    tag_182:\n        /* \"#utility.yul\":3995:4020   */\n      swap3\n      pop\n        /* \"#utility.yul\":4043:4044   */\n      dup3\n        /* \"#utility.yul\":4040:4041   */\n      dup3\n        /* \"#utility.yul\":4036:4045   */\n      add\n        /* \"#utility.yul\":4029:4045   */\n      swap1\n      pop\n        /* \"#utility.yul\":4064:4067   */\n      dup1\n        /* \"#utility.yul\":4061:4062   */\n      dup3\n        /* \"#utility.yul\":4058:4068   */\n      gt\n        /* \"#utility.yul\":4055:4091   */\n      iszero\n      tag_183\n      jumpi\n        /* \"#utility.yul\":4071:4089   */\n      tag_184\n      tag_124\n      jump\t// in\n    tag_184:\n        /* \"#utility.yul\":4055:4091   */\n    tag_183:\n        /* \"#utility.yul\":3907:4098   */\n      swap3\n      swap2\n      pop\n      pop\n      jump\t// out\n        /* \"#utility.yul\":4104:4514   */\n    tag_60:\n        /* \"#utility.yul\":4144:4151   */\n      0x00\n        /* \"#utility.yul\":4167:4187   */\n      tag_186\n        /* \"#utility.yul\":4185:4186   */\n      dup3\n        /* \"#utility.yul\":4167:4187   */\n      tag_112\n      jump\t// in\n    tag_186:\n        /* \"#utility.yul\":4162:4187   */\n      swap2\n      pop\n        /* \"#utility.yul\":4201:4221   */\n      tag_187\n        /* \"#utility.yul\":4219:4220   */\n      dup4\n        /* \"#utility.yul\":4201:4221   */\n      tag_112\n      jump\t// in\n    tag_187:\n        /* \"#utility.yul\":4196:4221   */\n      swap3\n      pop\n        /* \"#utility.yul\":4256:4257   */\n      dup3\n        /* \"#utility.yul\":4253:4254   */\n      dup3\n        /* \"#utility.yul\":4249:4258   */\n      mul\n        /* \"#utility.yul\":4278:4308   */\n      tag_188\n        /* \"#utility.yul\":4296:4307   */\n      dup2\n        /* \"#utility.yul\":4278:4308   */\n      tag_112\n      jump\t// in\n    tag_188:\n        /* \"#utility.yul\":4267:4308   */\n      swap2\n      pop\n        /* \"#utility.yul\":4457:4458   */\n      dup3\n        /* \"#utility.yul\":4448:4455   */\n      dup3\n        /* \"#utility.yul\":4444:4459   */\n      div\n        /* \"#utility.yul\":4441:4442   */\n      dup5\n        /* \"#utility.yul\":4438:4460   */\n      eq\n        /* \"#utility.yul\":4418:4419   */\n      dup4\n        /* \"#utility.yul\":4411:4420   */\n      iszero\n        /* \"#utility.yul\":4391:4474   */\n      or\n        /* \"#utility.yul\":4368:4507   */\n      tag_189\n      jumpi\n        /* \"#utility.yul\":4487:4505   */\n      tag_190\n      tag_124\n      jump\t// in\n    tag_190:\n        /* \"#utility.yul\":4368:4507   */\n    tag_189:\n        /* \"#utility.yul\":4152:4514   */\n      pop\n        /* \"#utility.yul\":4104:4514   */\n      swap3\n      swap2\n      pop\n      pop\n      jump\t// out\n        /* \"#utility.yul\":4520:4700   */\n    tag_69:\n        /* \"#utility.yul\":4568:4645   */\n      0x4e487b7100000000000000000000000000000000000000000000000000000000\n        /* \"#utility.yul\":4565:4566   */\n      0x00\n        /* \"#utility.yul\":4558:4646   */\n      mstore\n        /* \"#utility.yul\":4665:4669   */\n      0x32\n        /* \"#utility.yul\":4662:4663   */\n      0x04\n        /* \"#utility.yul\":4655:4670   */\n      mstore\n        /* \"#utility.yul\":4689:4693   */\n      0x24\n        /* \"#utility.yul\":4686:4687   */\n      0x00\n        /* \"#utility.yul\":4679:4694   */\n      revert\n        /* \"#utility.yul\":4706:4939   */\n    tag_72:\n        /* \"#utility.yul\":4745:4748   */\n      0x00\n        /* \"#utility.yul\":4768:4792   */\n      tag_193\n        /* \"#utility.yul\":4786:4791   */\n      dup3\n        /* \"#utility.yul\":4768:4792   */\n      tag_112\n      jump\t// in\n    tag_193:\n        /* \"#utility.yul\":4759:4792   */\n      swap2\n      pop\n        /* \"#utility.yul\":4814:4880   */\n      0xffffffffffffffffffffffffffffffffffffffffffffffffffffffffffffffff\n        /* \"#utility.yul\":4807:4812   */\n      dup3\n        /* \"#utility.yul\":4804:4881   */\n      sub\n        /* \"#utility.yul\":4801:4904   */\n      tag_194\n      jumpi\n        /* \"#utility.yul\":4884:4902   */\n      tag_195\n      tag_124\n      jump\t// in\n    tag_195:\n        /* \"#utility.yul\":4801:4904   */\n    tag_194:\n        /* \"#utility.yul\":4931:4932   */\n      0x01\n        /* \"#utility.yul\":4924:4929   */\n      dup3\n        /* \"#utility.yul\":4920:4933   */\n      add\n        /* \"#utility.yul\":4913:4933   */\n      swap1\n      pop\n        /* \"#utility.yul\":4706:4939   */\n      swap2\n      swap1\n      pop\n      jump\t// out\n        /* \"#utility.yul\":4945:5125   */\n    tag_75:\n        /* \"#utility.yul\":4993:5070   */\n      0x4e487b7100000000000000000000000000000000000000000000000000000000\n        /* \"#utility.yul\":4990:4991   */\n      0x00\n        /* \"#utility.yul\":4983:5071   */\n      mstore\n        /* \"#utility.yul\":5090:5094   */\n      0x41\n        /* \"#utility.yul\":5087:5088   */\n      0x04\n        /* \"#utility.yul\":5080:5095   */\n      mstore\n        /* \"#utility.yul\":5114:5118   */\n      0x24\n        /* \"#utility.yul\":5111:5112   */\n      0x00\n        /* \"#utility.yul\":5104:5119   */\n      revert\n        /* \"#utility.yul\":5131:5278   */\n    tag_125:\n        /* \"#utility.yul\":5232:5243   */\n      0x00\n        /* \"#utility.yul\":5269:5272   */\n      dup2\n        /* \"#utility.yul\":5254:5272   */\n      swap1\n      pop\n        /* \"#utility.yul\":5131:5278   */\n      swap3\n      swap2\n      pop\n      pop\n      jump\t// out\n        /* \"#utility.yul\":5284:5398   */\n    tag_126:\n      pop\n      jump\t// out\n        /* \"#utility.yul\":5404:5802   */\n    tag_127:\n        /* \"#utility.yul\":5563:5566   */\n      0x00\n        /* \"#utility.yul\":5584:5667   */\n      tag_200\n        /* \"#utility.yul\":5665:5666   */\n      0x00\n        /* \"#utility.yul\":5660:5663   */\n      dup4\n        /* \"#utility.yul\":5584:5667   */\n      tag_125\n      jump\t// in\n    tag_200:\n        /* \"#utility.yul\":5577:5667   */\n      swap2\n      pop\n        /* \"#utility.yul\":5676:5769   */\n      tag_201\n        /* \"#utility.yul\":5765:5768   */\n      dup3\n        /* \"#utility.yul\":5676:5769   */\n      tag_126\n      jump\t// in\n    tag_201:\n        /* \"#utility.yul\":5794:5795   */\n      0x00\n        /* \"#utility.yul\":5789:5792   */\n      dup3\n        /* \"#utility.yul\":5785:5796   */\n      add\n        /* \"#utility.yul\":5778:5796   */\n      swap1\n      pop\n        /* \"#utility.yul\":5404:5802   */\n      swap2\n      swap1\n      pop\n      jump\t// out\n        /* \"#utility.yul\":5808:6187   */\n    tag_80:\n        /* \"#utility.yul\":5992:5995   */\n      0x00\n        /* \"#utility.yul\":6014:6161   */\n      tag_203\n        /* \"#utility.yul\":6157:6160   */\n      dup3\n        /* \"#utility.yul\":6014:6161   */\n      tag_127\n      jump\t// in\n    tag_203:\n        /* \"#utility.yul\":6007:6161   */\n      swap2\n      pop\n        /* \"#utility.yul\":6178:6181   */\n      dup2\n        /* \"#utility.yul\":6171:6181   */\n      swap1\n      pop\n        /* \"#utility.yul\":5808:6187   */\n      swap2\n      swap1\n      pop\n      jump\t// out\n        /* \"#utility.yul\":6193:6354   */\n    tag_128:\n        /* \"#utility.yul\":6333:6346   */\n      0x43616c6c206661696c6564000000000000000000000000000000000000000000\n        /* \"#utility.yul\":6329:6330   */\n      0x00\n        /* \"#utility.yul\":6321:6327   */\n      dup3\n        /* \"#utility.yul\":6317:6331   */\n      add\n        /* \"#utility.yul\":6310:6347   */\n      mstore\n        /* \"#utility.yul\":6193:6354   */\n      pop\n      jump\t// out\n        /* \"#utility.yul\":6360:6726   */\n    tag_129:\n        /* \"#utility.yul\":6502:6505   */\n      0x00\n        /* \"#utility.yul\":6523:6590   */\n      tag_206\n        /* \"#utility.yul\":6587:6589   */\n      0x0b\n        /* \"#utility.yul\":6582:6585   */\n      dup4\n        /* \"#utility.yul\":6523:6590   */\n      tag_121\n      jump\t// in\n    tag_206:\n        /* \"#utility.yul\":6516:6590   */\n      swap2\n      pop\n        /* \"#utility.yul\":6599:6692   */\n      tag_207\n        /* \"#utility.yul\":6688:6691   */\n      dup3\n        /* \"#utility.yul\":6599:6692   */\n      tag_128\n      jump\t// in\n    tag_207:\n        /* \"#utility.yul\":6717:6719   */\n      0x20\n        /* \"#utility.yul\":6712:6715   */\n      dup3\n        /* \"#utility.yul\":6708:6720   */\n      add\n        /* \"#utility.yul\":6701:6720   */\n      swap1\n      pop\n        /* \"#utility.yul\":6360:6726   */\n      swap2\n      swap1\n      pop\n      jump\t// out\n        /* \"#utility.yul\":6732:7151   */\n    tag_86:\n        /* \"#utility.yul\":6898:6902   */\n      0x00\n        /* \"#utility.yul\":6936:6938   */\n      0x20\n        /* \"#utility.yul\":6925:6934   */\n      dup3\n        /* \"#utility.yul\":6921:6939   */\n      add\n        /* \"#utility.yul\":6913:6939   */\n      swap1\n      pop\n        /* \"#utility.yul\":6985:6994   */\n      dup2\n        /* \"#utility.yul\":6979:6983   */\n      dup2\n        /* \"#utility.yul\":6975:6995   */\n      sub\n        /* \"#utility.yul\":6971:6972   */\n      0x00\n        /* \"#utility.yul\":6960:6969   */\n      dup4\n        /* \"#utility.yul\":6956:6973   */\n      add\n        /* \"#utility.yul\":6949:6996   */\n      mstore\n        /* \"#utility.yul\":7013:7144   */\n      tag_209\n        /* \"#utility.yul\":7139:7143   */\n      dup2\n        /* \"#utility.yul\":7013:7144   */\n      tag_129\n      jump\t// in\n    tag_209:\n        /* \"#utility.yul\":7005:7144   */\n      swap1\n      pop\n        /* \"#utility.yul\":6732:7151   */\n      swap2\n      swap1\n      pop\n      jump\t// out\n        /* \"#utility.yul\":7157:7337   */\n    tag_130:\n        /* \"#utility.yul\":7205:7282   */\n      0x4e487b7100000000000000000000000000000000000000000000000000000000\n        /* \"#utility.yul\":7202:7203   */\n      0x00\n        /* \"#utility.yul\":7195:7283   */\n      mstore\n        /* \"#utility.yul\":7302:7306   */\n      0x12\n        /* \"#utility.yul\":7299:7300   */\n      0x04\n        /* \"#utility.yul\":7292:7307   */\n      mstore\n        /* \"#utility.yul\":7326:7330   */\n      0x24\n        /* \"#utility.yul\":7323:7324   */\n      0x00\n        /* \"#utility.yul\":7316:7331   */\n      revert\n        /* \"#utility.yul\":7343:7528   */\n    tag_94:\n        /* \"#utility.yul\":7383:7384   */\n      0x00\n        /* \"#utility.yul\":7400:7420   */\n      tag_212\n        /* \"#utility.yul\":7418:7419   */\n      dup3\n        /* \"#utility.yul\":7400:7420   */\n      tag_112\n      jump\t// in\n    tag_212:\n        /* \"#utility.yul\":7395:7420   */\n      swap2\n      pop\n        /* \"#utility.yul\":7434:7454   */\n      tag_213\n        /* \"#utility.yul\":7452:7453   */\n      dup4\n        /* \"#utility.yul\":7434:7454   */\n      tag_112\n      jump\t// in\n    tag_213:\n        /* \"#utility.yul\":7429:7454   */\n      swap3\n      pop\n        /* \"#utility.yul\":7473:7474   */\n      dup3\n        /* \"#utility.yul\":7463:7498   */\n      tag_214\n      jumpi\n        /* \"#utility.yul\":7478:7496   */\n      tag_215\n      tag_130\n      jump\t// in\n    tag_215:\n        /* \"#utility.yul\":7463:7498   */\n    tag_214:\n        /* \"#utility.yul\":7520:7521   */\n      dup3\n        /* \"#utility.yul\":7517:7518   */\n      dup3\n        /* \"#utility.yul\":7513:7522   */\n      div\n        /* \"#utility.yul\":7508:7522   */\n      swap1\n      pop\n        /* \"#utility.yul\":7343:7528   */\n      swap3\n      swap2\n      pop\n      pop\n      jump\t// out\n        /* \"#utility.yul\":7534:7639   */\n    tag_131:\n        /* \"#utility.yul\":7570:7577   */\n      0x00\n        /* \"#utility.yul\":7610:7632   */\n      0xffffffffffffffffffff\n        /* \"#utility.yul\":7603:7608   */\n      dup3\n        /* \"#utility.yul\":7599:7633   */\n      and\n        /* \"#utility.yul\":7588:7633   */\n      swap1\n      pop\n        /* \"#utility.yul\":7534:7639   */\n      swap2\n      swap1\n      pop\n      jump\t// out\n        /* \"#utility.yul\":7645:7765   */\n    tag_132:\n        /* \"#utility.yul\":7717:7740   */\n      tag_218\n        /* \"#utility.yul\":7734:7739   */\n      dup2\n        /* \"#utility.yul\":7717:7740   */\n      tag_131\n      jump\t// in\n    tag_218:\n        /* \"#utility.yul\":7710:7715   */\n      dup2\n        /* \"#utility.yul\":7707:7741   */\n      eq\n        /* \"#utility.yul\":7697:7759   */\n      tag_219\n      jumpi\n        /* \"#utility.yul\":7755:7756   */\n      0x00\n        /* \"#utility.yul\":7752:7753   */\n      dup1\n        /* \"#utility.yul\":7745:7757   */\n      revert\n        /* \"#utility.yul\":7697:7759   */\n    tag_219:\n        /* \"#utility.yul\":7645:7765   */\n      pop\n      jump\t// out\n        /* \"#utility.yul\":7771:7912   */\n    tag_133:\n        /* \"#utility.yul\":7827:7832   */\n      0x00\n        /* \"#utility.yul\":7858:7864   */\n      dup2\n        /* \"#utility.yul\":7852:7865   */\n      mload\n        /* \"#utility.yul\":7843:7865   */\n      swap1\n      pop\n        /* \"#utility.yul\":7874:7906   */\n      tag_221\n        /* \"#utility.yul\":7900:7905   */\n      dup2\n        /* \"#utility.yul\":7874:7906   */\n      tag_132\n      jump\t// in\n    tag_221:\n        /* \"#utility.yul\":7771:7912   */\n      swap3\n      swap2\n      pop\n      pop\n      jump\t// out\n        /* \"#utility.yul\":7918:7994   */\n    tag_134:\n        /* \"#utility.yul\":7954:7961   */\n      0x00\n        /* \"#utility.yul\":7983:7988   */\n      dup2\n        /* \"#utility.yul\":7972:7988   */\n      swap1\n      pop\n        /* \"#utility.yul\":7918:7994   */\n      swap2\n      swap1\n      pop\n      jump\t// out\n        /* \"#utility.yul\":8000:8120   */\n    tag_135:\n        /* \"#utility.yul\":8072:8095   */\n      tag_224\n        /* \"#utility.yul\":8089:8094   */\n      dup2\n        /* \"#utility.yul\":8072:8095   */\n      tag_134\n      jump\t// in\n    tag_224:\n        /* \"#utility.yul\":8065:8070   */\n      dup2\n        /* \"#utility.yul\":8062:8096   */\n      eq\n        /* \"#utility.yul\":8052:8114   */\n      tag_225\n      jumpi\n        /* \"#utility.yul\":8110:8111   */\n      0x00\n        /* \"#utility.yul\":8107:8108   */\n      dup1\n        /* \"#utility.yul\":8100:8112   */\n      revert\n        /* \"#utility.yul\":8052:8114   */\n    tag_225:\n        /* \"#utility.yul\":8000:8120   */\n      pop\n      jump\t// out\n        /* \"#utility.yul\":8126:8267   */\n    tag_136:\n        /* \"#utility.yul\":8182:8187   */\n      0x00\n        /* \"#utility.yul\":8213:8219   */\n      dup2\n        /* \"#utility.yul\":8207:8220   */\n      mload\n        /* \"#utility.yul\":8198:8220   */\n      swap1\n      pop\n        /* \"#utility.yul\":8229:8261   */\n      tag_227\n        /* \"#utility.yul\":8255:8260   */\n      dup2\n        /* \"#utility.yul\":8229:8261   */\n      tag_135\n      jump\t// in\n    tag_227:\n        /* \"#utility.yul\":8126:8267   */\n      swap3\n      swap2\n      pop\n      pop\n      jump\t// out\n        /* \"#utility.yul\":8273:8416   */\n    tag_137:\n        /* \"#utility.yul\":8330:8335   */\n      0x00\n        /* \"#utility.yul\":8361:8367   */\n      dup2\n        /* \"#utility.yul\":8355:8368   */\n      mload\n        /* \"#utility.yul\":8346:8368   */\n      swap1\n      pop\n        /* \"#utility.yul\":8377:8410   */\n      tag_229\n        /* \"#utility.yul\":8404:8409   */\n      dup2\n        /* \"#utility.yul\":8377:8410   */\n      tag_113\n      jump\t// in\n    tag_229:\n        /* \"#utility.yul\":8273:8416   */\n      swap3\n      swap2\n      pop\n      pop\n      jump\t// out\n        /* \"#utility.yul\":8422:9393   */\n    tag_99:\n        /* \"#utility.yul\":8525:8531   */\n      0x00\n        /* \"#utility.yul\":8533:8539   */\n      dup1\n        /* \"#utility.yul\":8541:8547   */\n      0x00\n        /* \"#utility.yul\":8549:8555   */\n      dup1\n        /* \"#utility.yul\":8557:8563   */\n      0x00\n        /* \"#utility.yul\":8606:8609   */\n      0xa0\n        /* \"#utility.yul\":8594:8603   */\n      dup7\n        /* \"#utility.yul\":8585:8592   */\n      dup9\n        /* \"#utility.yul\":8581:8604   */\n      sub\n        /* \"#utility.yul\":8577:8610   */\n      slt\n        /* \"#utility.yul\":8574:8694   */\n      iszero\n      tag_231\n      jumpi\n        /* \"#utility.yul\":8613:8692   */\n      tag_232\n      tag_110\n      jump\t// in\n    tag_232:\n        /* \"#utility.yul\":8574:8694   */\n    tag_231:\n        /* \"#utility.yul\":8733:8734   */\n      0x00\n        /* \"#utility.yul\":8758:8821   */\n      tag_233\n        /* \"#utility.yul\":8813:8820   */\n      dup9\n        /* \"#utility.yul\":8804:8810   */\n      dup3\n        /* \"#utility.yul\":8793:8802   */\n      dup10\n        /* \"#utility.yul\":8789:8811   */\n      add\n        /* \"#utility.yul\":8758:8821   */\n      tag_133\n      jump\t// in\n    tag_233:\n        /* \"#utility.yul\":8748:8821   */\n      swap6\n      pop\n        /* \"#utility.yul\":8704:8831   */\n      pop\n        /* \"#utility.yul\":8870:8872   */\n      0x20\n        /* \"#utility.yul\":8896:8959   */\n      tag_234\n        /* \"#utility.yul\":8951:8958   */\n      dup9\n        /* \"#utility.yul\":8942:8948   */\n      dup3\n        /* \"#utility.yul\":8931:8940   */\n      dup10\n        /* \"#utility.yul\":8927:8949   */\n      add\n        /* \"#utility.yul\":8896:8959   */\n      tag_136\n      jump\t// in\n    tag_234:\n        /* \"#utility.yul\":8886:8959   */\n      swap5\n      pop\n        /* \"#utility.yul\":8841:8969   */\n      pop\n        /* \"#utility.yul\":9008:9010   */\n      0x40\n        /* \"#utility.yul\":9034:9098   */\n      tag_235\n        /* \"#utility.yul\":9090:9097   */\n      dup9\n        /* \"#utility.yul\":9081:9087   */\n      dup3\n        /* \"#utility.yul\":9070:9079   */\n      dup10\n        /* \"#utility.yul\":9066:9088   */\n      add\n        /* \"#utility.yul\":9034:9098   */\n      tag_137\n      jump\t// in\n    tag_235:\n        /* \"#utility.yul\":9024:9098   */\n      swap4\n      pop\n        /* \"#utility.yul\":8979:9108   */\n      pop\n        /* \"#utility.yul\":9147:9149   */\n      0x60\n        /* \"#utility.yul\":9173:9237   */\n      tag_236\n        /* \"#utility.yul\":9229:9236   */\n      dup9\n        /* \"#utility.yul\":9220:9226   */\n      dup3\n        /* \"#utility.yul\":9209:9218   */\n      dup10\n        /* \"#utility.yul\":9205:9227   */\n      add\n        /* \"#utility.yul\":9173:9237   */\n      tag_137\n      jump\t// in\n    tag_236:\n        /* \"#utility.yul\":9163:9237   */\n      swap3\n      pop\n        /* \"#utility.yul\":9118:9247   */\n      pop\n        /* \"#utility.yul\":9286:9289   */\n      0x80\n        /* \"#utility.yul\":9313:9376   */\n      tag_237\n        /* \"#utility.yul\":9368:9375   */\n      dup9\n        /* \"#utility.yul\":9359:9365   */\n      dup3\n        /* \"#utility.yul\":9348:9357   */\n      dup10\n        /* \"#utility.yul\":9344:9366   */\n      add\n        /* \"#utility.yul\":9313:9376   */\n      tag_133\n      jump\t// in\n    tag_237:\n        /* \"#utility.yul\":9303:9376   */\n      swap2\n      pop\n        /* \"#utility.yul\":9257:9386   */\n      pop\n        /* \"#utility.yul\":8422:9393   */\n      swap3\n      swap6\n      pop\n      swap3\n      swap6\n      swap1\n      swap4\n      pop\n      jump\t// out\n        /* \"#utility.yul\":9399:9955   */\n    tag_101:\n        /* \"#utility.yul\":9438:9445   */\n      0x00\n        /* \"#utility.yul\":9461:9480   */\n      tag_239\n        /* \"#utility.yul\":9478:9479   */\n      dup3\n        /* \"#utility.yul\":9461:9480   */\n      tag_134\n      jump\t// in\n    tag_239:\n        /* \"#utility.yul\":9456:9480   */\n      swap2\n      pop\n        /* \"#utility.yul\":9494:9513   */\n      tag_240\n        /* \"#utility.yul\":9511:9512   */\n      dup4\n        /* \"#utility.yul\":9494:9513   */\n      tag_134\n      jump\t// in\n    tag_240:\n        /* \"#utility.yul\":9489:9513   */\n      swap3\n      pop\n        /* \"#utility.yul\":9548:9549   */\n      dup3\n        /* \"#utility.yul\":9545:9546   */\n      dup3\n        /* \"#utility.yul\":9541:9550   */\n      mul\n        /* \"#utility.yul\":9570:9599   */\n      tag_241\n        /* \"#utility.yul\":9587:9598   */\n      dup2\n        /* \"#utility.yul\":9570:9599   */\n      tag_134\n      jump\t// in\n    tag_241:\n        /* \"#utility.yul\":9559:9599   */\n      swap2\n      pop\n        /* \"#utility.yul\":9657:9723   */\n      0x8000000000000000000000000000000000000000000000000000000000000000\n        /* \"#utility.yul\":9654:9655   */\n      dup5\n        /* \"#utility.yul\":9651:9724   */\n      eq\n        /* \"#utility.yul\":9647:9648   */\n      0x00\n        /* \"#utility.yul\":9644:9645   */\n      dup5\n        /* \"#utility.yul\":9640:9649   */\n      slt\n        /* \"#utility.yul\":9636:9725   */\n      and\n        /* \"#utility.yul\":9633:9748   */\n      iszero\n      tag_242\n      jumpi\n        /* \"#utility.yul\":9728:9746   */\n      tag_243\n      tag_124\n      jump\t// in\n    tag_243:\n        /* \"#utility.yul\":9633:9748   */\n    tag_242:\n        /* \"#utility.yul\":9898:9899   */\n      dup3\n        /* \"#utility.yul\":9889:9896   */\n      dup3\n        /* \"#utility.yul\":9884:9900   */\n      sdiv\n        /* \"#utility.yul\":9881:9882   */\n      dup5\n        /* \"#utility.yul\":9878:9901   */\n      eq\n        /* \"#utility.yul\":9858:9859   */\n      dup4\n        /* \"#utility.yul\":9851:9860   */\n      iszero\n        /* \"#utility.yul\":9831:9915   */\n      or\n        /* \"#utility.yul\":9808:9948   */\n      tag_244\n      jumpi\n        /* \"#utility.yul\":9928:9946   */\n      tag_245\n      tag_124\n      jump\t// in\n    tag_245:\n        /* \"#utility.yul\":9808:9948   */\n    tag_244:\n        /* \"#utility.yul\":9446:9955   */\n      pop\n        /* \"#utility.yul\":9399:9955   */\n      swap3\n      swap2\n      pop\n      pop\n      jump\t// out\n\n    auxdata: 0xa264697066735822122010840250fbd79e539ca6c8f92d97015ac7e27f2268384f2a6673e70159075e2464736f6c63430008130033\n}\n",
				"bytecode": {
					"linkReferences": {},
					"object": "60a060405234801561001057600080fd5b503373ffffffffffffffffffffffffffffffffffffffff1660808173ffffffffffffffffffffffffffffffffffffffff1681525050608051610d0b610067600039600081816102e501526105490152610d0b6000f3fe6080604052600436106100745760003560e01c80636b69a5921161004e5780636b69a5921461011e578063b60d428814610149578063dba6335f14610153578063dc0d3dff1461017e57610083565b806305e30f511461008d5780633ccfd60b146100ca5780633e47d6f3146100e157610083565b36610083576100816101bb565b005b61008b6101bb565b005b34801561009957600080fd5b506100b460048036038101906100af919061076f565b6102c9565b6040516100c191906107ab565b60405180910390f35b3480156100d657600080fd5b506100df6102e3565b005b3480156100ed57600080fd5b5061010860048036038101906101039190610824565b610523565b60405161011591906107ab565b60405180910390f35b34801561012a57600080fd5b5061013361053b565b60405161014091906107ab565b60405180910390f35b6101516101bb565b005b34801561015f57600080fd5b50610168610547565b6040516101759190610860565b60405180910390f35b34801561018a57600080fd5b506101a560048036038101906101a0919061076f565b61056b565b6040516101b29190610860565b60405180910390f35b674563918244f400006101cd346105aa565b101561020e576040517f08c379a0000000000000000000000000000000000000000000000000000000008152600401610205906108d8565b60405180910390fd5b6000339080600181540180825580915050600190039060005260206000200160009091909190916101000a81548173ffffffffffffffffffffffffffffffffffffffff021916908373ffffffffffffffffffffffffffffffffffffffff16021790555034600160003373ffffffffffffffffffffffffffffffffffffffff1673ffffffffffffffffffffffffffffffffffffffff16815260200190815260200160002060008282546102c09190610927565b92505081905550565b600064174876e800826102dc919061095b565b9050919050565b7f000000000000000000000000000000000000000000000000000000000000000073ffffffffffffffffffffffffffffffffffffffff163373ffffffffffffffffffffffffffffffffffffffff1614610368576040517f30cd747100000000000000000000000000000000000000000000000000000000815260040160405180910390fd5b60005b60008054905081101561041357600080828154811061038d5761038c61099d565b5b9060005260206000200160009054906101000a900473ffffffffffffffffffffffffffffffffffffffff1690506000600160008373ffffffffffffffffffffffffffffffffffffffff1673ffffffffffffffffffffffffffffffffffffffff1681526020019081526020016000208190555050808061040b906109cc565b91505061036b565b50600067ffffffffffffffff81111561042f5761042e610a14565b5b60405190808252806020026020018201604052801561045d5781602001602082028036833780820191505090505b506000908051906020019061047392919061068d565b5060003373ffffffffffffffffffffffffffffffffffffffff164760405161049a90610a74565b60006040518083038185875af1925050503d80600081146104d7576040519150601f19603f3d011682016040523d82523d6000602084013e6104dc565b606091505b5050905080610520576040517f08c379a000000000000000000000000000000000000000000000000000000000815260040161051790610ad5565b60405180910390fd5b50565b60016020528060005260406000206000915090505481565b674563918244f4000081565b7f000000000000000000000000000000000000000000000000000000000000000081565b6000818154811061057b57600080fd5b906000526020600020016000915054906101000a900473ffffffffffffffffffffffffffffffffffffffff1681565b6000806105b56105e4565b90506000670de0b6b3a764000084836105ce919061095b565b6105d89190610b24565b90508092505050919050565b60008073694aa1769357215de4fac081bf1f309adc325306905060008173ffffffffffffffffffffffffffffffffffffffff1663feaf968c6040518163ffffffff1660e01b815260040160a060405180830381865afa15801561064b573d6000803e3d6000fd5b505050506040513d601f19601f8201168201806040525081019061066f9190610be2565b5050509150506402540be400816106869190610c5d565b9250505090565b828054828255906000526020600020908101928215610706579160200282015b828111156107055782518260006101000a81548173ffffffffffffffffffffffffffffffffffffffff021916908373ffffffffffffffffffffffffffffffffffffffff160217905550916020019190600101906106ad565b5b5090506107139190610717565b5090565b5b80821115610730576000816000905550600101610718565b5090565b600080fd5b6000819050919050565b61074c81610739565b811461075757600080fd5b50565b60008135905061076981610743565b92915050565b60006020828403121561078557610784610734565b5b60006107938482850161075a565b91505092915050565b6107a581610739565b82525050565b60006020820190506107c0600083018461079c565b92915050565b600073ffffffffffffffffffffffffffffffffffffffff82169050919050565b60006107f1826107c6565b9050919050565b610801816107e6565b811461080c57600080fd5b50565b60008135905061081e816107f8565b92915050565b60006020828403121561083a57610839610734565b5b60006108488482850161080f565b91505092915050565b61085a816107e6565b82525050565b60006020820190506108756000830184610851565b92915050565b600082825260208201905092915050565b7f4469646e27742073656e6420656e6f7567682045544800000000000000000000600082015250565b60006108c260168361087b565b91506108cd8261088c565b602082019050919050565b600060208201905081810360008301526108f1816108b5565b9050919050565b7f4e487b7100000000000000000000000000000000000000000000000000000000600052601160045260246000fd5b600061093282610739565b915061093d83610739565b9250828201905080821115610955576109546108f8565b5b92915050565b600061096682610739565b915061097183610739565b925082820261097f81610739565b91508282048414831517610996576109956108f8565b5b5092915050565b7f4e487b7100000000000000000000000000000000000000000000000000000000600052603260045260246000fd5b60006109d782610739565b91507fffffffffffffffffffffffffffffffffffffffffffffffffffffffffffffffff8203610a0957610a086108f8565b5b600182019050919050565b7f4e487b7100000000000000000000000000000000000000000000000000000000600052604160045260246000fd5b600081905092915050565b50565b6000610a5e600083610a43565b9150610a6982610a4e565b600082019050919050565b6000610a7f82610a51565b9150819050919050565b7f43616c6c206661696c6564000000000000000000000000000000000000000000600082015250565b6000610abf600b8361087b565b9150610aca82610a89565b602082019050919050565b60006020820190508181036000830152610aee81610ab2565b9050919050565b7f4e487b7100000000000000000000000000000000000000000000000000000000600052601260045260246000fd5b6000610b2f82610739565b9150610b3a83610739565b925082610b4a57610b49610af5565b5b828204905092915050565b600069ffffffffffffffffffff82169050919050565b610b7481610b55565b8114610b7f57600080fd5b50565b600081519050610b9181610b6b565b92915050565b6000819050919050565b610baa81610b97565b8114610bb557600080fd5b50565b600081519050610bc781610ba1565b92915050565b600081519050610bdc81610743565b92915050565b600080600080600060a08688031215610bfe57610bfd610734565b5b6000610c0c88828901610b82565b9550506020610c1d88828901610bb8565b9450506040610c2e88828901610bcd565b9350506060610c3f88828901610bcd565b9250506080610c5088828901610b82565b9150509295509295909350565b6000610c6882610b97565b9150610c7383610b97565b9250828202610c8181610b97565b91507f80000000000000000000000000000000000000000000000000000000000000008414600084121615610cb957610cb86108f8565b5b8282058414831517610cce57610ccd6108f8565b5b509291505056fea264697066735822122010840250fbd79e539ca6c8f92d97015ac7e27f2268384f2a6673e70159075e2464736f6c63430008130033",
					"opcodes": "PUSH1 0xA0 PUSH1 0x40 MSTORE CALLVALUE DUP1 ISZERO PUSH2 0x10 JUMPI PUSH1 0x0 DUP1 REVERT JUMPDEST POP CALLER PUSH20 0xFFFFFFFFFFFFFFFFFFFFFFFFFFFFFFFFFFFFFFFF AND PUSH1 0x80 DUP2 PUSH20 0xFFFFFFFFFFFFFFFFFFFFFFFFFFFFFFFFFFFFFFFF AND DUP2 MSTORE POP POP PUSH1 0x80 MLOAD PUSH2 0xD0B PUSH2 0x67 PUSH1 0x0 CODECOPY PUSH1 0x0 DUP2 DUP2 PUSH2 0x2E5 ADD MSTORE PUSH2 0x549 ADD MSTORE PUSH2 0xD0B PUSH1 0x0 RETURN INVALID PUSH1 0x80 PUSH1 0x40 MSTORE PUSH1 0x4 CALLDATASIZE LT PUSH2 0x74 JUMPI PUSH1 0x0 CALLDATALOAD PUSH1 0xE0 SHR DUP1 PUSH4 0x6B69A592 GT PUSH2 0x4E JUMPI DUP1 PUSH4 0x6B69A592 EQ PUSH2 0x11E JUMPI DUP1 PUSH4 0xB60D4288 EQ PUSH2 0x149 JUMPI DUP1 PUSH4 0xDBA6335F EQ PUSH2 0x153 JUMPI DUP1 PUSH4 0xDC0D3DFF EQ PUSH2 0x17E JUMPI PUSH2 0x83 JUMP JUMPDEST DUP1 PUSH4 0x5E30F51 EQ PUSH2 0x8D JUMPI DUP1 PUSH4 0x3CCFD60B EQ PUSH2 0xCA JUMPI DUP1 PUSH4 0x3E47D6F3 EQ PUSH2 0xE1 JUMPI PUSH2 0x83 JUMP JUMPDEST CALLDATASIZE PUSH2 0x83 JUMPI PUSH2 0x81 PUSH2 0x1BB JUMP JUMPDEST STOP JUMPDEST PUSH2 0x8B PUSH2 0x1BB JUMP JUMPDEST STOP JUMPDEST CALLVALUE DUP1 ISZERO PUSH2 0x99 JUMPI PUSH1 0x0 DUP1 REVERT JUMPDEST POP PUSH2 0xB4 PUSH1 0x4 DUP1 CALLDATASIZE SUB DUP2 ADD SWAP1 PUSH2 0xAF SWAP2 SWAP1 PUSH2 0x76F JUMP JUMPDEST PUSH2 0x2C9 JUMP JUMPDEST PUSH1 0x40 MLOAD PUSH2 0xC1 SWAP2 SWAP1 PUSH2 0x7AB JUMP JUMPDEST PUSH1 0x40 MLOAD DUP1 SWAP2 SUB SWAP1 RETURN JUMPDEST CALLVALUE DUP1 ISZERO PUSH2 0xD6 JUMPI PUSH1 0x0 DUP1 REVERT JUMPDEST POP PUSH2 0xDF PUSH2 0x2E3 JUMP JUMPDEST STOP JUMPDEST CALLVALUE DUP1 ISZERO PUSH2 0xED JUMPI PUSH1 0x0 DUP1 REVERT JUMPDEST POP PUSH2 0x108 PUSH1 0x4 DUP1 CALLDATASIZE SUB DUP2 ADD SWAP1 PUSH2 0x103 SWAP2 SWAP1 PUSH2 0x824 JUMP JUMPDEST PUSH2 0x523 JUMP JUMPDEST PUSH1 0x40 MLOAD PUSH2 0x115 SWAP2 SWAP1 PUSH2 0x7AB JUMP JUMPDEST PUSH1 0x40 MLOAD DUP1 SWAP2 SUB SWAP1 RETURN JUMPDEST CALLVALUE DUP1 ISZERO PUSH2 0x12A JUMPI PUSH1 0x0 DUP1 REVERT JUMPDEST POP PUSH2 0x133 PUSH2 0x53B JUMP JUMPDEST PUSH1 0x40 MLOAD PUSH2 0x140 SWAP2 SWAP1 PUSH2 0x7AB JUMP JUMPDEST PUSH1 0x40 MLOAD DUP1 SWAP2 SUB SWAP1 RETURN JUMPDEST PUSH2 0x151 PUSH2 0x1BB JUMP JUMPDEST STOP JUMPDEST CALLVALUE DUP1 ISZERO PUSH2 0x15F JUMPI PUSH1 0x0 DUP1 REVERT JUMPDEST POP PUSH2 0x168 PUSH2 0x547 JUMP JUMPDEST PUSH1 0x40 MLOAD PUSH2 0x175 SWAP2 SWAP1 PUSH2 0x860 JUMP JUMPDEST PUSH1 0x40 MLOAD DUP1 SWAP2 SUB SWAP1 RETURN JUMPDEST CALLVALUE DUP1 ISZERO PUSH2 0x18A JUMPI PUSH1 0x0 DUP1 REVERT JUMPDEST POP PUSH2 0x1A5 PUSH1 0x4 DUP1 CALLDATASIZE SUB DUP2 ADD SWAP1 PUSH2 0x1A0 SWAP2 SWAP1 PUSH2 0x76F JUMP JUMPDEST PUSH2 0x56B JUMP JUMPDEST PUSH1 0x40 MLOAD PUSH2 0x1B2 SWAP2 SWAP1 PUSH2 0x860 JUMP JUMPDEST PUSH1 0x40 MLOAD DUP1 SWAP2 SUB SWAP1 RETURN JUMPDEST PUSH8 0x4563918244F40000 PUSH2 0x1CD CALLVALUE PUSH2 0x5AA JUMP JUMPDEST LT ISZERO PUSH2 0x20E JUMPI PUSH1 0x40 MLOAD PUSH32 0x8C379A000000000000000000000000000000000000000000000000000000000 DUP2 MSTORE PUSH1 0x4 ADD PUSH2 0x205 SWAP1 PUSH2 0x8D8 JUMP JUMPDEST PUSH1 0x40 MLOAD DUP1 SWAP2 SUB SWAP1 REVERT JUMPDEST PUSH1 0x0 CALLER SWAP1 DUP1 PUSH1 0x1 DUP2 SLOAD ADD DUP1 DUP3 SSTORE DUP1 SWAP2 POP POP PUSH1 0x1 SWAP1 SUB SWAP1 PUSH1 0x0 MSTORE PUSH1 0x20 PUSH1 0x0 KECCAK256 ADD PUSH1 0x0 SWAP1 SWAP2 SWAP1 SWAP2 SWAP1 SWAP2 PUSH2 0x100 EXP DUP2 SLOAD DUP2 PUSH20 0xFFFFFFFFFFFFFFFFFFFFFFFFFFFFFFFFFFFFFFFF MUL NOT AND SWAP1 DUP4 PUSH20 0xFFFFFFFFFFFFFFFFFFFFFFFFFFFFFFFFFFFFFFFF AND MUL OR SWAP1 SSTORE POP CALLVALUE PUSH1 0x1 PUSH1 0x0 CALLER PUSH20 0xFFFFFFFFFFFFFFFFFFFFFFFFFFFFFFFFFFFFFFFF AND PUSH20 0xFFFFFFFFFFFFFFFFFFFFFFFFFFFFFFFFFFFFFFFF AND DUP2 MSTORE PUSH1 0x20 ADD SWAP1 DUP2 MSTORE PUSH1 0x20 ADD PUSH1 0x0 KECCAK256 PUSH1 0x0 DUP3 DUP3 SLOAD PUSH2 0x2C0 SWAP2 SWAP1 PUSH2 0x927 JUMP JUMPDEST SWAP3 POP POP DUP2 SWAP1 SSTORE POP JUMP JUMPDEST PUSH1 0x0 PUSH5 0x174876E800 DUP3 PUSH2 0x2DC SWAP2 SWAP1 PUSH2 0x95B JUMP JUMPDEST SWAP1 POP SWAP2 SWAP1 POP JUMP JUMPDEST PUSH32 0x0 PUSH20 0xFFFFFFFFFFFFFFFFFFFFFFFFFFFFFFFFFFFFFFFF AND CALLER PUSH20 0xFFFFFFFFFFFFFFFFFFFFFFFFFFFFFFFFFFFFFFFF AND EQ PUSH2 0x368 JUMPI PUSH1 0x40 MLOAD PUSH32 0x30CD747100000000000000000000000000000000000000000000000000000000 DUP2 MSTORE PUSH1 0x4 ADD PUSH1 0x40 MLOAD DUP1 SWAP2 SUB SWAP1 REVERT JUMPDEST PUSH1 0x0 JUMPDEST PUSH1 0x0 DUP1 SLOAD SWAP1 POP DUP2 LT ISZERO PUSH2 0x413 JUMPI PUSH1 0x0 DUP1 DUP3 DUP2 SLOAD DUP2 LT PUSH2 0x38D JUMPI PUSH2 0x38C PUSH2 0x99D JUMP JUMPDEST JUMPDEST SWAP1 PUSH1 0x0 MSTORE PUSH1 0x20 PUSH1 0x0 KECCAK256 ADD PUSH1 0x0 SWAP1 SLOAD SWAP1 PUSH2 0x100 EXP SWAP1 DIV PUSH20 0xFFFFFFFFFFFFFFFFFFFFFFFFFFFFFFFFFFFFFFFF AND SWAP1 POP PUSH1 0x0 PUSH1 0x1 PUSH1 0x0 DUP4 PUSH20 0xFFFFFFFFFFFFFFFFFFFFFFFFFFFFFFFFFFFFFFFF AND PUSH20 0xFFFFFFFFFFFFFFFFFFFFFFFFFFFFFFFFFFFFFFFF AND DUP2 MSTORE PUSH1 0x20 ADD SWAP1 DUP2 MSTORE PUSH1 0x20 ADD PUSH1 0x0 KECCAK256 DUP2 SWAP1 SSTORE POP POP DUP1 DUP1 PUSH2 0x40B SWAP1 PUSH2 0x9CC JUMP JUMPDEST SWAP2 POP POP PUSH2 0x36B JUMP JUMPDEST POP PUSH1 0x0 PUSH8 0xFFFFFFFFFFFFFFFF DUP2 GT ISZERO PUSH2 0x42F JUMPI PUSH2 0x42E PUSH2 0xA14 JUMP JUMPDEST JUMPDEST PUSH1 0x40 MLOAD SWAP1 DUP1 DUP3 MSTORE DUP1 PUSH1 0x20 MUL PUSH1 0x20 ADD DUP3 ADD PUSH1 0x40 MSTORE DUP1 ISZERO PUSH2 0x45D JUMPI DUP2 PUSH1 0x20 ADD PUSH1 0x20 DUP3 MUL DUP1 CALLDATASIZE DUP4 CALLDATACOPY DUP1 DUP3 ADD SWAP2 POP POP SWAP1 POP JUMPDEST POP PUSH1 0x0 SWAP1 DUP1 MLOAD SWAP1 PUSH1 0x20 ADD SWAP1 PUSH2 0x473 SWAP3 SWAP2 SWAP1 PUSH2 0x68D JUMP JUMPDEST POP PUSH1 0x0 CALLER PUSH20 0xFFFFFFFFFFFFFFFFFFFFFFFFFFFFFFFFFFFFFFFF AND SELFBALANCE PUSH1 0x40 MLOAD PUSH2 0x49A SWAP1 PUSH2 0xA74 JUMP JUMPDEST PUSH1 0x0 PUSH1 0x40 MLOAD DUP1 DUP4 SUB DUP2 DUP6 DUP8 GAS CALL SWAP3 POP POP POP RETURNDATASIZE DUP1 PUSH1 0x0 DUP2 EQ PUSH2 0x4D7 JUMPI PUSH1 0x40 MLOAD SWAP2 POP PUSH1 0x1F NOT PUSH1 0x3F RETURNDATASIZE ADD AND DUP3 ADD PUSH1 0x40 MSTORE RETURNDATASIZE DUP3 MSTORE RETURNDATASIZE PUSH1 0x0 PUSH1 0x20 DUP5 ADD RETURNDATACOPY PUSH2 0x4DC JUMP JUMPDEST PUSH1 0x60 SWAP2 POP JUMPDEST POP POP SWAP1 POP DUP1 PUSH2 0x520 JUMPI PUSH1 0x40 MLOAD PUSH32 0x8C379A000000000000000000000000000000000000000000000000000000000 DUP2 MSTORE PUSH1 0x4 ADD PUSH2 0x517 SWAP1 PUSH2 0xAD5 JUMP JUMPDEST PUSH1 0x40 MLOAD DUP1 SWAP2 SUB SWAP1 REVERT JUMPDEST POP JUMP JUMPDEST PUSH1 0x1 PUSH1 0x20 MSTORE DUP1 PUSH1 0x0 MSTORE PUSH1 0x40 PUSH1 0x0 KECCAK256 PUSH1 0x0 SWAP2 POP SWAP1 POP SLOAD DUP2 JUMP JUMPDEST PUSH8 0x4563918244F40000 DUP2 JUMP JUMPDEST PUSH32 0x0 DUP2 JUMP JUMPDEST PUSH1 0x0 DUP2 DUP2 SLOAD DUP2 LT PUSH2 0x57B JUMPI PUSH1 0x0 DUP1 REVERT JUMPDEST SWAP1 PUSH1 0x0 MSTORE PUSH1 0x20 PUSH1 0x0 KECCAK256 ADD PUSH1 0x0 SWAP2 POP SLOAD SWAP1 PUSH2 0x100 EXP SWAP1 DIV PUSH20 0xFFFFFFFFFFFFFFFFFFFFFFFFFFFFFFFFFFFFFFFF AND DUP2 JUMP JUMPDEST PUSH1 0x0 DUP1 PUSH2 0x5B5 PUSH2 0x5E4 JUMP JUMPDEST SWAP1 POP PUSH1 0x0 PUSH8 0xDE0B6B3A7640000 DUP5 DUP4 PUSH2 0x5CE SWAP2 SWAP1 PUSH2 0x95B JUMP JUMPDEST PUSH2 0x5D8 SWAP2 SWAP1 PUSH2 0xB24 JUMP JUMPDEST SWAP1 POP DUP1 SWAP3 POP POP POP SWAP2 SWAP1 POP JUMP JUMPDEST PUSH1 0x0 DUP1 PUSH20 0x694AA1769357215DE4FAC081BF1F309ADC325306 SWAP1 POP PUSH1 0x0 DUP2 PUSH20 0xFFFFFFFFFFFFFFFFFFFFFFFFFFFFFFFFFFFFFFFF AND PUSH4 0xFEAF968C PUSH1 0x40 MLOAD DUP2 PUSH4 0xFFFFFFFF AND PUSH1 0xE0 SHL DUP2 MSTORE PUSH1 0x4 ADD PUSH1 0xA0 PUSH1 0x40 MLOAD DUP1 DUP4 SUB DUP2 DUP7 GAS STATICCALL ISZERO DUP1 ISZERO PUSH2 0x64B JUMPI RETURNDATASIZE PUSH1 0x0 DUP1 RETURNDATACOPY RETURNDATASIZE PUSH1 0x0 REVERT JUMPDEST POP POP POP POP PUSH1 0x40 MLOAD RETURNDATASIZE PUSH1 0x1F NOT PUSH1 0x1F DUP3 ADD AND DUP3 ADD DUP1 PUSH1 0x40 MSTORE POP DUP2 ADD SWAP1 PUSH2 0x66F SWAP2 SWAP1 PUSH2 0xBE2 JUMP JUMPDEST POP POP POP SWAP2 POP POP PUSH5 0x2540BE400 DUP2 PUSH2 0x686 SWAP2 SWAP1 PUSH2 0xC5D JUMP JUMPDEST SWAP3 POP POP POP SWAP1 JUMP JUMPDEST DUP3 DUP1 SLOAD DUP3 DUP3 SSTORE SWAP1 PUSH1 0x0 MSTORE PUSH1 0x20 PUSH1 0x0 KECCAK256 SWAP1 DUP2 ADD SWAP3 DUP3 ISZERO PUSH2 0x706 JUMPI SWAP2 PUSH1 0x20 MUL DUP3 ADD JUMPDEST DUP3 DUP2 GT ISZERO PUSH2 0x705 JUMPI DUP3 MLOAD DUP3 PUSH1 0x0 PUSH2 0x100 EXP DUP2 SLOAD DUP2 PUSH20 0xFFFFFFFFFFFFFFFFFFFFFFFFFFFFFFFFFFFFFFFF MUL NOT AND SWAP1 DUP4 PUSH20 0xFFFFFFFFFFFFFFFFFFFFFFFFFFFFFFFFFFFFFFFF AND MUL OR SWAP1 SSTORE POP SWAP2 PUSH1 0x20 ADD SWAP2 SWAP1 PUSH1 0x1 ADD SWAP1 PUSH2 0x6AD JUMP JUMPDEST JUMPDEST POP SWAP1 POP PUSH2 0x713 SWAP2 SWAP1 PUSH2 0x717 JUMP JUMPDEST POP SWAP1 JUMP JUMPDEST JUMPDEST DUP1 DUP3 GT ISZERO PUSH2 0x730 JUMPI PUSH1 0x0 DUP2 PUSH1 0x0 SWAP1 SSTORE POP PUSH1 0x1 ADD PUSH2 0x718 JUMP JUMPDEST POP SWAP1 JUMP JUMPDEST PUSH1 0x0 DUP1 REVERT JUMPDEST PUSH1 0x0 DUP2 SWAP1 POP SWAP2 SWAP1 POP JUMP JUMPDEST PUSH2 0x74C DUP2 PUSH2 0x739 JUMP JUMPDEST DUP2 EQ PUSH2 0x757 JUMPI PUSH1 0x0 DUP1 REVERT JUMPDEST POP JUMP JUMPDEST PUSH1 0x0 DUP2 CALLDATALOAD SWAP1 POP PUSH2 0x769 DUP2 PUSH2 0x743 JUMP JUMPDEST SWAP3 SWAP2 POP POP JUMP JUMPDEST PUSH1 0x0 PUSH1 0x20 DUP3 DUP5 SUB SLT ISZERO PUSH2 0x785 JUMPI PUSH2 0x784 PUSH2 0x734 JUMP JUMPDEST JUMPDEST PUSH1 0x0 PUSH2 0x793 DUP5 DUP3 DUP6 ADD PUSH2 0x75A JUMP JUMPDEST SWAP2 POP POP SWAP3 SWAP2 POP POP JUMP JUMPDEST PUSH2 0x7A5 DUP2 PUSH2 0x739 JUMP JUMPDEST DUP3 MSTORE POP POP JUMP JUMPDEST PUSH1 0x0 PUSH1 0x20 DUP3 ADD SWAP1 POP PUSH2 0x7C0 PUSH1 0x0 DUP4 ADD DUP5 PUSH2 0x79C JUMP JUMPDEST SWAP3 SWAP2 POP POP JUMP JUMPDEST PUSH1 0x0 PUSH20 0xFFFFFFFFFFFFFFFFFFFFFFFFFFFFFFFFFFFFFFFF DUP3 AND SWAP1 POP SWAP2 SWAP1 POP JUMP JUMPDEST PUSH1 0x0 PUSH2 0x7F1 DUP3 PUSH2 0x7C6 JUMP JUMPDEST SWAP1 POP SWAP2 SWAP1 POP JUMP JUMPDEST PUSH2 0x801 DUP2 PUSH2 0x7E6 JUMP JUMPDEST DUP2 EQ PUSH2 0x80C JUMPI PUSH1 0x0 DUP1 REVERT JUMPDEST POP JUMP JUMPDEST PUSH1 0x0 DUP2 CALLDATALOAD SWAP1 POP PUSH2 0x81E DUP2 PUSH2 0x7F8 JUMP JUMPDEST SWAP3 SWAP2 POP POP JUMP JUMPDEST PUSH1 0x0 PUSH1 0x20 DUP3 DUP5 SUB SLT ISZERO PUSH2 0x83A JUMPI PUSH2 0x839 PUSH2 0x734 JUMP JUMPDEST JUMPDEST PUSH1 0x0 PUSH2 0x848 DUP5 DUP3 DUP6 ADD PUSH2 0x80F JUMP JUMPDEST SWAP2 POP POP SWAP3 SWAP2 POP POP JUMP JUMPDEST PUSH2 0x85A DUP2 PUSH2 0x7E6 JUMP JUMPDEST DUP3 MSTORE POP POP JUMP JUMPDEST PUSH1 0x0 PUSH1 0x20 DUP3 ADD SWAP1 POP PUSH2 0x875 PUSH1 0x0 DUP4 ADD DUP5 PUSH2 0x851 JUMP JUMPDEST SWAP3 SWAP2 POP POP JUMP JUMPDEST PUSH1 0x0 DUP3 DUP3 MSTORE PUSH1 0x20 DUP3 ADD SWAP1 POP SWAP3 SWAP2 POP POP JUMP JUMPDEST PUSH32 0x4469646E27742073656E6420656E6F7567682045544800000000000000000000 PUSH1 0x0 DUP3 ADD MSTORE POP JUMP JUMPDEST PUSH1 0x0 PUSH2 0x8C2 PUSH1 0x16 DUP4 PUSH2 0x87B JUMP JUMPDEST SWAP2 POP PUSH2 0x8CD DUP3 PUSH2 0x88C JUMP JUMPDEST PUSH1 0x20 DUP3 ADD SWAP1 POP SWAP2 SWAP1 POP JUMP JUMPDEST PUSH1 0x0 PUSH1 0x20 DUP3 ADD SWAP1 POP DUP2 DUP2 SUB PUSH1 0x0 DUP4 ADD MSTORE PUSH2 0x8F1 DUP2 PUSH2 0x8B5 JUMP JUMPDEST SWAP1 POP SWAP2 SWAP1 POP JUMP JUMPDEST PUSH32 0x4E487B7100000000000000000000000000000000000000000000000000000000 PUSH1 0x0 MSTORE PUSH1 0x11 PUSH1 0x4 MSTORE PUSH1 0x24 PUSH1 0x0 REVERT JUMPDEST PUSH1 0x0 PUSH2 0x932 DUP3 PUSH2 0x739 JUMP JUMPDEST SWAP2 POP PUSH2 0x93D DUP4 PUSH2 0x739 JUMP JUMPDEST SWAP3 POP DUP3 DUP3 ADD SWAP1 POP DUP1 DUP3 GT ISZERO PUSH2 0x955 JUMPI PUSH2 0x954 PUSH2 0x8F8 JUMP JUMPDEST JUMPDEST SWAP3 SWAP2 POP POP JUMP JUMPDEST PUSH1 0x0 PUSH2 0x966 DUP3 PUSH2 0x739 JUMP JUMPDEST SWAP2 POP PUSH2 0x971 DUP4 PUSH2 0x739 JUMP JUMPDEST SWAP3 POP DUP3 DUP3 MUL PUSH2 0x97F DUP2 PUSH2 0x739 JUMP JUMPDEST SWAP2 POP DUP3 DUP3 DIV DUP5 EQ DUP4 ISZERO OR PUSH2 0x996 JUMPI PUSH2 0x995 PUSH2 0x8F8 JUMP JUMPDEST JUMPDEST POP SWAP3 SWAP2 POP POP JUMP JUMPDEST PUSH32 0x4E487B7100000000000000000000000000000000000000000000000000000000 PUSH1 0x0 MSTORE PUSH1 0x32 PUSH1 0x4 MSTORE PUSH1 0x24 PUSH1 0x0 REVERT JUMPDEST PUSH1 0x0 PUSH2 0x9D7 DUP3 PUSH2 0x739 JUMP JUMPDEST SWAP2 POP PUSH32 0xFFFFFFFFFFFFFFFFFFFFFFFFFFFFFFFFFFFFFFFFFFFFFFFFFFFFFFFFFFFFFFFF DUP3 SUB PUSH2 0xA09 JUMPI PUSH2 0xA08 PUSH2 0x8F8 JUMP JUMPDEST JUMPDEST PUSH1 0x1 DUP3 ADD SWAP1 POP SWAP2 SWAP1 POP JUMP JUMPDEST PUSH32 0x4E487B7100000000000000000000000000000000000000000000000000000000 PUSH1 0x0 MSTORE PUSH1 0x41 PUSH1 0x4 MSTORE PUSH1 0x24 PUSH1 0x0 REVERT JUMPDEST PUSH1 0x0 DUP2 SWAP1 POP SWAP3 SWAP2 POP POP JUMP JUMPDEST POP JUMP JUMPDEST PUSH1 0x0 PUSH2 0xA5E PUSH1 0x0 DUP4 PUSH2 0xA43 JUMP JUMPDEST SWAP2 POP PUSH2 0xA69 DUP3 PUSH2 0xA4E JUMP JUMPDEST PUSH1 0x0 DUP3 ADD SWAP1 POP SWAP2 SWAP1 POP JUMP JUMPDEST PUSH1 0x0 PUSH2 0xA7F DUP3 PUSH2 0xA51 JUMP JUMPDEST SWAP2 POP DUP2 SWAP1 POP SWAP2 SWAP1 POP JUMP JUMPDEST PUSH32 0x43616C6C206661696C6564000000000000000000000000000000000000000000 PUSH1 0x0 DUP3 ADD MSTORE POP JUMP JUMPDEST PUSH1 0x0 PUSH2 0xABF PUSH1 0xB DUP4 PUSH2 0x87B JUMP JUMPDEST SWAP2 POP PUSH2 0xACA DUP3 PUSH2 0xA89 JUMP JUMPDEST PUSH1 0x20 DUP3 ADD SWAP1 POP SWAP2 SWAP1 POP JUMP JUMPDEST PUSH1 0x0 PUSH1 0x20 DUP3 ADD SWAP1 POP DUP2 DUP2 SUB PUSH1 0x0 DUP4 ADD MSTORE PUSH2 0xAEE DUP2 PUSH2 0xAB2 JUMP JUMPDEST SWAP1 POP SWAP2 SWAP1 POP JUMP JUMPDEST PUSH32 0x4E487B7100000000000000000000000000000000000000000000000000000000 PUSH1 0x0 MSTORE PUSH1 0x12 PUSH1 0x4 MSTORE PUSH1 0x24 PUSH1 0x0 REVERT JUMPDEST PUSH1 0x0 PUSH2 0xB2F DUP3 PUSH2 0x739 JUMP JUMPDEST SWAP2 POP PUSH2 0xB3A DUP4 PUSH2 0x739 JUMP JUMPDEST SWAP3 POP DUP3 PUSH2 0xB4A JUMPI PUSH2 0xB49 PUSH2 0xAF5 JUMP JUMPDEST JUMPDEST DUP3 DUP3 DIV SWAP1 POP SWAP3 SWAP2 POP POP JUMP JUMPDEST PUSH1 0x0 PUSH10 0xFFFFFFFFFFFFFFFFFFFF DUP3 AND SWAP1 POP SWAP2 SWAP1 POP JUMP JUMPDEST PUSH2 0xB74 DUP2 PUSH2 0xB55 JUMP JUMPDEST DUP2 EQ PUSH2 0xB7F JUMPI PUSH1 0x0 DUP1 REVERT JUMPDEST POP JUMP JUMPDEST PUSH1 0x0 DUP2 MLOAD SWAP1 POP PUSH2 0xB91 DUP2 PUSH2 0xB6B JUMP JUMPDEST SWAP3 SWAP2 POP POP JUMP JUMPDEST PUSH1 0x0 DUP2 SWAP1 POP SWAP2 SWAP1 POP JUMP JUMPDEST PUSH2 0xBAA DUP2 PUSH2 0xB97 JUMP JUMPDEST DUP2 EQ PUSH2 0xBB5 JUMPI PUSH1 0x0 DUP1 REVERT JUMPDEST POP JUMP JUMPDEST PUSH1 0x0 DUP2 MLOAD SWAP1 POP PUSH2 0xBC7 DUP2 PUSH2 0xBA1 JUMP JUMPDEST SWAP3 SWAP2 POP POP JUMP JUMPDEST PUSH1 0x0 DUP2 MLOAD SWAP1 POP PUSH2 0xBDC DUP2 PUSH2 0x743 JUMP JUMPDEST SWAP3 SWAP2 POP POP JUMP JUMPDEST PUSH1 0x0 DUP1 PUSH1 0x0 DUP1 PUSH1 0x0 PUSH1 0xA0 DUP7 DUP9 SUB SLT ISZERO PUSH2 0xBFE JUMPI PUSH2 0xBFD PUSH2 0x734 JUMP JUMPDEST JUMPDEST PUSH1 0x0 PUSH2 0xC0C DUP9 DUP3 DUP10 ADD PUSH2 0xB82 JUMP JUMPDEST SWAP6 POP POP PUSH1 0x20 PUSH2 0xC1D DUP9 DUP3 DUP10 ADD PUSH2 0xBB8 JUMP JUMPDEST SWAP5 POP POP PUSH1 0x40 PUSH2 0xC2E DUP9 DUP3 DUP10 ADD PUSH2 0xBCD JUMP JUMPDEST SWAP4 POP POP PUSH1 0x60 PUSH2 0xC3F DUP9 DUP3 DUP10 ADD PUSH2 0xBCD JUMP JUMPDEST SWAP3 POP POP PUSH1 0x80 PUSH2 0xC50 DUP9 DUP3 DUP10 ADD PUSH2 0xB82 JUMP JUMPDEST SWAP2 POP POP SWAP3 SWAP6 POP SWAP3 SWAP6 SWAP1 SWAP4 POP JUMP JUMPDEST PUSH1 0x0 PUSH2 0xC68 DUP3 PUSH2 0xB97 JUMP JUMPDEST SWAP2 POP PUSH2 0xC73 DUP4 PUSH2 0xB97 JUMP JUMPDEST SWAP3 POP DUP3 DUP3 MUL PUSH2 0xC81 DUP2 PUSH2 0xB97 JUMP JUMPDEST SWAP2 POP PUSH32 0x8000000000000000000000000000000000000000000000000000000000000000 DUP5 EQ PUSH1 0x0 DUP5 SLT AND ISZERO PUSH2 0xCB9 JUMPI PUSH2 0xCB8 PUSH2 0x8F8 JUMP JUMPDEST JUMPDEST DUP3 DUP3 SDIV DUP5 EQ DUP4 ISZERO OR PUSH2 0xCCE JUMPI PUSH2 0xCCD PUSH2 0x8F8 JUMP JUMPDEST JUMPDEST POP SWAP3 SWAP2 POP POP JUMP INVALID LOG2 PUSH5 0x6970667358 0x22 SLT KECCAK256 LT DUP5 MUL POP 0xFB 0xD7 SWAP15 MSTORE8 SWAP13 0xA6 0xC8 0xF9 0x2D SWAP8 ADD GAS 0xC7 0xE2 PUSH32 0x2268384F2A6673E70159075E2464736F6C634300081300330000000000000000 "
				},
				"gasEstimates": {
					"creation": {
						"codeDepositCost": "667800",
						"executionCost": "infinite",
						"totalCost": "infinite"
					},
					"external": {
						"": "infinite",
						"MINIMUM_USD()": "329",
						"addressToAmountFunded(address)": "2859",
						"fund()": "infinite",
						"funders(uint256)": "5022",
						"i_owner()": "infinite",
						"multiplier(uint256)": "infinite",
						"withdraw()": "infinite"
					}
				},
				"methodIdentifiers": {
					"MINIMUM_USD()": "6b69a592",
					"addressToAmountFunded(address)": "3e47d6f3",
					"fund()": "b60d4288",
					"funders(uint256)": "dc0d3dff",
					"i_owner()": "dba6335f",
					"multiplier(uint256)": "05e30f51",
					"withdraw()": "3ccfd60b"
				}
			},
			"storageLayout": {
				"storage": [
					{
						"astId": 62,
						"contract": "FundMe.sol:FundMe",
						"label": "funders",
						"offset": 0,
						"slot": "0",
						"type": "t_array(t_address)dyn_storage"
					},
					{
						"astId": 66,
						"contract": "FundMe.sol:FundMe",
						"label": "addressToAmountFunded",
						"offset": 0,
						"slot": "1",
						"type": "t_mapping(t_address,t_uint256)"
					}
				],
				"types": {
					"t_address": {
						"encoding": "inplace",
						"label": "address",
						"numberOfBytes": "20"
					},
					"t_array(t_address)dyn_storage": {
						"base": "t_address",
						"encoding": "dynamic_array",
						"label": "address[]",
						"numberOfBytes": "32"
					},
					"t_mapping(t_address,t_uint256)": {
						"encoding": "mapping",
						"key": "t_address",
						"label": "mapping(address => uint256)",
						"numberOfBytes": "32",
						"value": "t_uint256"
					},
					"t_uint256": {
						"encoding": "inplace",
						"label": "uint256",
						"numberOfBytes": "32"
					}
				}
			},
			"userdoc": {
				"kind": "user",
				"methods": {},
				"version": 1
			}
		}
	}
}